:100000004D424E014D3448530004040001002200CB
:100010006000000000C000000000000000000000C0
:100020000000EEEE000000000000000000000000F4
:1000300001000004000000000000000000000000BB
:100040000200010100002D000000000000B40000CB
:10005000030001012D00300000B40000000C00007E
:1000600000280020ED020000000000000000000059
:100070000000000000000000000000000000000080
:100080000000000000000000000000000000000070
:10009000000000000000000000000000B5010000AA
:1000A000E1010000FD010000B9010000CD010000E8
:1000B00000000000002934D00123002210B488423F
:1000C0002CD301242407A14204D2814202D2090187
:1000D0001B01F8E7E400A14204D2814202D24900A8
:1000E0005B00F8E7884201D3401A1A434C08A0424B
:1000F00002D3001B5C0822438C08A04202D3001BE1
:100100009C082243CC08A04202D3001BDC082243F7
:10011000002803D01B0901D00909E3E7101C10BC1B
:100120007047002801D00020C04307B4024802A154
:100130004018029003BDC046D90000000029F0D04D
:1001400003B5FFF7B9FF0EBC4243891A1847C046F2
:10015000002941D010B4041C4C40A44601230022C5
:10016000002900D54942002800D5404288422CD3BE
:1001700001242407A14204D2814202D209011B01B9
:10018000F8E7E400A14204D2814202D249005B00B8
:10019000F8E7884201D3401A1A434C08A04202D320
:1001A000001B5C0822438C08A04202D3001B9C0861
:1001B0002243CC08A04202D3001BDC0822430028C3
:1001C00003D01B0901D00909E3E7101C6446002C89
:1001D00000D5404210BC7047002806D003DB002049
:1001E000C043400801E08020000607B4024802A195
:1001F0004018029003BDC046190000000029EBD052
:1002000003B5FFF7A7FF0EBC4243891A1847C04643
:100210007047C046FEE70000034B01225A70A0233E
:100220000022DB051A707047740F0020034B012277
:100230009A70A0230022DB059A707047740F00208B
:1002400008B5054B01221A70A0230022DB05DA76DF
:1002500000F056FD08BDC046740F002038B580255B
:10026000ED052B79DBB2002B0CD130490B604B60D4
:100270002B89081C9BB28B608A680C30103107F008
:10028000C9FE47E0012B0DD1284BD968002941D088
:100290005A68186982423DDA5A68501C58602B7AB5
:1002A0008B5437E0022B30D1204CE368002B2AD04E
:1002B000226821698A420CDA22689B5C1BBAEB60D7
:1002C000A3682068C01880B207F000FF23680133DC
:1002D00017E0A2682368201C211CD2180C301031B2
:1002E00007F098FEE368002B0DD0A16822688A18F9
:1002F000A2601B781BBAEB60A06880B207F0E6FE34
:100300000123236006E0EB6004E0032B02D1074BDE
:1003100000225A60C0468023DB0501221A70C046C5
:1003200002221A7000221A7038BDC046EC0200206A
:1003300080230222DB05FF321A600421024AFF31CA
:10034000118000221A70704706000040F8B505F0D1
:1003500077FA484B1F22C4B21A60EF2C07D0EE2C5C
:1003600001D80134E4B2201C04F080FEF5E700233C
:10037000414A42499A188A4204D24149C958043331
:100380001160F5E73F4B404A191D043B934203D2ED
:1003900000221A600B1CF6E7EFF308823B4B191D95
:1003A000043B9A4203D93A4818600B1CF7E7FFF761
:1003B000BFFF38493848053989B280B204F000FFE0
:1003C000364C374D01235B4223716371A371E37196
:1003D0002B1C3C331A782B1C3D331B781B02134318
:1003E00098423FD107F0FEFD2E4B2F4918882F4A27
:1003F00088420BD06E7D18882B7D3602334398429D
:1004000004D113889BB223711B0A637113888B423A
:100410001BD0EE7DA87D138836023043834214D171
:1004200000200423013BDBB2FF2B07D0204EEF1846
:10043000F65C3F79B742F5D10120F3E7002804D0FC
:1004400013889BB2A3711B0AE371637922791B02A3
:1004500013438B4206D0E279A37912021A43124B5E
:100460009A4204D1134B02221A6062B6FEE700F0F2
:100470008BF8F7E71C00005000000020EC02002081
:10048000ACAA0000F0020020700F00202410002011
:10049000CDCDCDCD00C0000000000000DC0F00205D
:1004A000C0BF0000FEB30000FFFF0000BEBF0000A1
:1004B00000B4000000E100E0014B18607047C04646
:1004C000E40F0020014B18687047C046E40F00207D
:1004D000014B18607047C046E80F0020014B1868B8
:1004E0007047C046E80F0020014B18687047C046AF
:1004F0000000002038B5114C256805F0E3F9A8622A
:10050000256805F0E3F9E862256805F0E3F968611C
:10051000256805F0E3F9A861256805F007FA0849A0
:10052000236809681A1CE8320631E861116002226A
:100530001A67D03303221A6038BDC046000000207D
:10054000E80F0020034B10B51C6805F0DBF9A06133
:1005500010BDC0460000002008B502F05FFE021E7C
:1005600005D10749A9230B7107F0E4FCFEE7054B11
:100570001B6803CB04F0DCFFFFF7BCFF08BDC046DF
:1005800037050020D802002037B507F065FB6C4620
:10059000073420700AF09CF80AF000F902F0F0FD30
:1005A000FFF7DAFF06F094FD07F056FB051C0E2856
:1005B00000D90E25E8B2034B8200D358211C98477E
:1005C0002570F1E7040000200F4B32211B68002248
:1005D000D9676420191D9A6704318867CA670220A9
:1005E0008031086001204860181C01219430494284
:1005F0000160826001618261A83304380160826019
:1006000001611A607047C04600000020F7B500AFD6
:100610003960786005F074FC83000A33DB08DB0086
:100620006946C91A8D46041C684605F071FC6300D2
:100630000833DB086D46DB00EA1A9546684605F08C
:1006400085FC00226E46111C013C06D3A300EB582A
:10065000C9186300F35AD218F6E72C4C022025681B
:100660002B1C8C331C1C0C3C26680138632E0ADDC5
:10067000002626600126B44676429E6000261E6152
:1006800066464640AE672668013626601C698C4285
:1006900000D219619E688E4200D999601C68012CB5
:1006A00009DD1B4E00241C609E611C6201262C1C6F
:1006B00008344640E6671C681E6A01341C60964296
:1006C00000D21A629C69944200D99A61043B0028C6
:1006D000C8D10E4E7C6833683E68996FBD468A006B
:1006E0009A18111C98319032096812688A1A22806F
:1006F0001A1C0832D26F92009B181A1CA832A03321
:1007000012681B68D31A3380F7BDC0460000002072
:10071000FFFF0000F0B585B01F1C0AAB1B78151C4D
:1007200001910393041C04F0FFFC1E4B281C1B6862
:100730000021DA6892000AF0CFF8019E002E0CD05A
:10074000201C05F007FA184B281C1B68391C5A6935
:10075000002307F059FE013EF0E7002C0FD1124BA9
:100760001B685F69DB69029305F09AF8061C05F0C7
:10077000A1F80299031C321C381C07F02DFD281C1F
:100780000021019A07F094FE039B012B08D1002C55
:1007900006D1054B201C1D6805F04CFBEC3528608C
:1007A00005B0F0BDD802002000000020F0B589B0EF
:1007B000059106920793049007F0F0FC234B807993
:1007C0001B6802905A699B6905985A430021920060
:1007D0000AF082F8029F013F7A1C2BD0049805F0A2
:1007E000B9F91A4B1E6872690192019B013B039390
:1007F000F1D3B469164B059AE518039B6343ED18D2
:10080000AD005519013C13D3B368019A5343E31863
:100810000133069A9B0098582B6818182860002FFF
:1008200004D10299FFF746FC00042860043DE9E783
:10083000039AD9E7079B012B06D1064B04981C6845
:1008400005F0F8FAF034206009B0F0BDD8020020BD
:10085000FFFFFF3F0000002030B5214D85B02B6821
:100860001A1CCE321178663A002904D1191CB03115
:100870000978002901D0002111701478002C1DD0B6
:10088000D96E002001919A6B164902921B6B01AA46
:10089000039303234B707C235B42CB7010230B71BB
:1008A00007F048FB2B680024DA6E196F8A4202DCDD
:1008B0000132DA6610E0DC6601240DE09A6B1B6BF6
:1008C0000949019202930920642301AA0B71039440
:1008D00007F030FB2B68DC66201C05B030BDC0463D
:1008E000000000208C00002093000020F0B593B0A1
:1008F00004AF3A61F86007F05DFC6C4E69463368FE
:10090000B8601C68796004346400221C0832D20884
:10091000D200881A5A68854604325200131C0833E4
:10092000DB08DB00C01A04AD854604A97961081C08
:10093000002109F0D1FF221C281C002109F0CCFF66
:100940005B4CF86823685A69191CDB690090281D04
:1009500001907869303104300290386903F0CCFBA3
:10096000336838609A6891001A68236801324A43F4
:100970005869002109F0B0FF2068436D64300360BE
:1009800008F0CCFEBA682368127B58690195009282
:100990007A69191C02925C313A69303303F004FD24
:1009A0007B689D4607F012FC051C07F043FF2B797E
:1009B000002B0CD074300378002B08D1226824233C
:1009C000FF33D35C012B02D0012004F053FD3368C8
:1009D00038495A6818684A709A68CB787F25087039
:1009E000AB4302208024034364422343CB70532350
:1009F0008A700B7101323B6952009A18012007F08E
:100A000099FA381C00212022183009F065FF33685C
:100A1000186859689A6838767976BA760533DB7F34
:100A20003969FB767B7F0220AB43013203435200DE
:100A30008A181C437C77391C00920022012018314F
:100A4000131C07F03DFA02F09FFB02F0BBFBFFF71F
:100A500003FF002826D1164C2368586905F060F979
:100A60002568281C291C5C31303003F07FFC23688A
:100A70002866186E05F074F804F0C4FE3A68002A7F
:100A800007D12368F8681A1C30321B68396907F0EF
:100A90000BFC022004F01AFD2068643008F03EFED2
:100AA000052000E00420BD460FB0F0BDD8020020B4
:100AB0000000002030050020F0B59400231C0A330C
:100AC00085B0DB08DB006946C91A02AF8D4602AA71
:100AD000061C7A60101C0021221C09F0FDFE231C5C
:100AE0000833DB08DB006946C91A8D4602AD281CB5
:100AF000221C002109F0F0FE0C4C301C2368D96A3E
:100B00009A6A5C3300910193291C7B6808F028FEE7
:100B1000301C02F0BFFB2368301C9A6ADB6A291C78
:100B200000937B6808F08AF8BD46F7BD00000020FE
:100B300070B50C1C151C1E1C08F0DCFA0B4B201C9D
:100B40001B68996ADA6A08F0D9FB201C08F0BAFF22
:100B5000201C08F0CDFC291C321C201C08F06AFD6A
:100B6000291C201C03F038FA70BDC046000000208C
:100B700038B509F05FFD051C012009F06FFD041C6C
:100B8000281C04F0B9FA201C04F0C2FA38BD38B5AC
:100B900009F03CFE09F056FD051C002009F05EFD41
:100BA000041C281C04F0A8FA002005F027F8201CDB
:100BB00004F0AEFA04F036FC38BD10B5A4B08C22B7
:100BC000041C002101A809F087FE01A8211C08F0DF
:100BD00071FD08F09BFD01A8211C02F0C1FB24B0AF
:100BE00010BD0000F8B5071C07F024FE404E346825
:100BF0002379002B02D0012B2AD05EE03D4A211C34
:100C00001268EC310D68011D1278C96F226000294D
:100C100005DC2169384B994202D0236901332361F5
:100C20002369934249DD0830C36F002B45D1221C54
:100C300074321370391CA2690420FFF7B7FD04F069
:100C400067FC012004F086FF04F0BAFD012327E0D1
:100C5000284B1F687B782360231CF0331D682069B4
:100C6000198B0130FFF7CAFA002906D12369002B3E
:100C700003DD231CEC331B68ED18231CFF33DB7AE8
:100C8000012B05D13B782360EC342568002307E075
:100C90002269194B9A4210D02369013323610CE079
:100CA00031680022081CFF30C2720B710A611349BF
:100CB0000E33101C0B7107F03DF93368186805F00E
:100CC00085F9041C281C05F0A7F9241A002C09DD5D
:100CD0003368186805F07AF9041C281C05F09CF9A3
:100CE000201A00E0012004F0C5FB04F0E5FBF8BD8C
:100CF00000000020E80F0020FFFFFF7F37050020E5
:100D000008B5084B24221B68FF329A5C002A08D1E0
:100D10001B790420012B02D0002B02D1022004F009
:100D2000F1FE08BD00000020F0B587B007F04EFAD4
:100D3000071C07F07FFD031DDA6FA44B002A07D1C3
:100D400088300468621E9441E4B2002C05D000E0B3
:100D500001241A680021B83205E01A68B832116817
:100D6000FE2901DC013111601B6800211A1CCC3204
:100D700015881180183A029511708C4204D094495C
:100D80000968C97C002958D0181CB3300178C9B251
:100D9000002908D003785BB2022B00D00123137026
:100DA000002303700EE11E1CB0363578002D09D0EB
:100DB000012515701A1CB132BC33017031701170ED
:100DC000196000E1002C38D1191CBC310D68002DD0
:100DD00008DD013D012D01D00D602EE003230C60E4
:100DE0001370F0E01A1CE83212681188794A9142B7
:100DF00023D01A1CC8321188774A1268D2888A42D6
:100E00001BD8734D2868027C181CB83000689042CB
:100E100013DB05AA1180CA331B8870495380022353
:100E20004B70CB70201C15230B7107F083F8674BB8
:100E30002A681B68527CBC331A60654E3368987C04
:100E4000002800D0BEE0614D002C22D12A689B7F93
:100E5000C43212689A4214DB61491223201C221CFE
:100E60000B7107F067F82A683068131CC0331968E3
:100E700001311960C07F814203DB1C60B432022360
:100E800013702A680023111CB231C4320B70136036
:100E90003DE02B681A1CBC3210602A321278002AFE
:100EA00035D0191CC831098805AA1180CA331B889E
:100EB0004A49538002234B70CB7019230B7107F002
:100EC00039F82B683268191CC8310D88908B163997
:100ED000854214D2181CCA300588108D85420ED266
:100EE000908D029D85420ADA097800290FD1C4331A
:100EF0001968927F91420ADA0131196007E00122F4
:100F00000A70191C0022C431C0330A601A602F4EC7
:100F10003268131CE6331B78002B53D13B79002B2E
:100F20004ED0131CB0331D78002D4BD1284F106BC1
:100F30003B683A689B8A118B9C463B68528BDB8AE4
:100F40000093634607F0E4F83B6803909B8C32689B
:100F50009C463B68106BDB8C3A68118C528C00937A
:100F6000634607F0D5F833681A1CC8321188039A13
:100F7000CA33914207DA1A88824204DA3A68029840
:100F8000528D904210DB05AA11801B8813495380B3
:100F900002234B70CB70002017230B7106F0CAFFA1
:100FA00033680122B1331A7033681A1CB1321278D7
:100FB000002A07D0002C05D0B03301221A7002E0BD
:100FC000B13213700125281C07B0F0BD00000020CD
:100FD000E40F0020FFFF0000E80F00208C0000203D
:100FE00037050020F0B58FB000AF786304F07EF8CD
:100FF000061C04F093F8386104F084F89F4B786085
:101000001B686846DC68231C0E33DB08DB00C01A53
:1010100085466D463D637279A218131C0E33DB08BA
:101020005500DB00C01A2B1C0E33DB08DB00F86216
:101030008546C01AC11A85468D4678626846786131
:101040000021F86A09F048FC012149422A1C786A0B
:1010500009F042FC8A492A1C786909F03DFC221CEF
:10106000386B396909F0F6FB7C6B002C11D1854C8B
:10107000B379082023707379211C6370A3707F23D8
:101080005B42E3703A6BD223237106F053FFB379CE
:10109000CBE040250024BD61FC6100210122386BBA
:1010A00005F0FEFE032004F055FD744B75491B68E6
:1010B0001D6858689A680423CB7051230B71724BDA
:1010C0008A701B6801325B69920048709A1802208E
:1010D0000D7006F02FFFB479BC62BC6A013C3C6223
:1010E00000D291E07379013B7B637C6B013400D1CA
:1010F00087E03D6A73797C6B6B437D69E3185B0025
:101100005A5B624B9A4278D003F0F0FF5E4BBC6AA8
:101110001A685A4B7D6B1B6852699B686343EB18D6
:1011200001339B003C6AD25A437978696343EB18D8
:101130005D00AC46011C61440C883C60944204D8BC
:101140007D6A101B6446285323E07D6A2C1C64448E
:10115000251CFC6000242C5F013415D0FD6AEC18BE
:10116000257868B2B860013001DA013503E0B8686B
:10117000002809DD013D02235B420B80FB692570DD
:1011800001339BB2FB612CE0FD6AEC182578002D41
:1011900001D10A800CE06DB2681C05D13968FD6888
:1011A0008A1A2A80002202E0012D01D1FF2222703A
:1011B000FC6AE1180A7850B2002806DC7D6A6446B1
:1011C000285F013007D0002A05D13C6B0132E3567D
:1011D0003E2B05DD05E03D6BEB56002B01DD013AB2
:1011E0000A7073793C6A7D6B6343FC6AEB183D6956
:1011F000E15CEA5C3C6B8A18E2547D6B013D7D63E7
:1012000073E73D6ABD6268E71C4BFD691B68DA68DD
:101210001B69D3189D4200DB29E7BB69013BDBB2A8
:10122000BB61002B00D038E721E7013B0FD3727977
:10123000013AFAD371793D6B5943891869187D6871
:10124000E81848300D78007828180870F0E7386BF7
:101250000021012205F024FEB37908202370737960
:10126000211C6370A3707F235B42E3703A6B1D23E4
:10127000237106F05FFEBD460FB0F0BDD80200201E
:10128000FFFF00003005002000000020FEFF0000EE
:1012900010B5041C03F036FF453000784342584136
:1012A0002040FFF79FFE10BDF0B5434C8DB000AF5E
:1012B0002668B960051C06F0E5FC2423FF3321688D
:1012C000F054CA5C3D4C002A10D123680A20986271
:1012D000F4312820D8620A7009F0FAF909F05EFAB0
:1012E000FFF73AF904F032FD302216E006F062FF13
:1012F0000026067009F01CFA236803CB04F018F9E5
:10130000FFF7F8F8236802221A620A229A6228225A
:10131000DA621E611A685B685A439200131C0A3332
:10132000DB08DB006846C01A85466B46FB60236815
:10133000186859689C6A414389000A31E600C90867
:10134000C9006846331C401AA4000833C11A231C84
:101350000833DB08DB0085468D467860C91A68468D
:1013600078618D463961F868002109F0B5FA321CC0
:101370007869002109F0B0FA221C3869002109F0CF
:10138000ABFA00237B627B697868F968BB620A4B21
:10139000F861386939621B682421F862FF315A5CB0
:1013A000074B9100CC583B1C281CB9681C33A04744
:1013B000BD460DB0F0BDC04600000020D8020020A0
:1013C0004000002010B5041C06F0D8FC06F044FCD8
:1013D000A042FBD009F05CF9FFF7BEF806F0F2FA84
:1013E00010BD000070B5051CFFF7C2FBFFF776F8D3
:1013F000224B041C1B68DE8806F0F4FB002004F07E
:10140000FDFB04F0B3FB1E4B1B6831331B78002B34
:1014100004D00020E080291C00F0FEFA04F010FA4D
:10142000C0B206F0D3FDFFF765F80120FFF730FFEB
:1014300006F0A4FC06F0ACFC052815D004D8002862
:1014400014D003280AD806E006280AD0021C113A54
:10145000D2B2022A0AD801F03BFC07E005F0C4FE34
:1014600004E003F0DFFF01E003F0C4FF06F0F4FB4B
:10147000A842DFD0FFF78BFBE68070BDE80F0020AD
:10148000E40F002010B5041C06F078FC0120FFF7E3
:10149000FFFE06F0E1FBA042FBD010BD10B5041C1E
:1014A00006F06CFC01F012FC06F0D6FBA042FBD06B
:1014B00010BD10B5041C06F061FC04F0CFFC06F072
:1014C000CBFBA042FBD010BD10B5041C06F056FCAF
:1014D0000220211C00F0A0FA06F0BEFBA042FBD0C7
:1014E00010BD10B5041C06F049FC0120211C00F0C1
:1014F00093FA06F0B1FBA042FBD010BD10B5041C5E
:1015000006F03CFC002004F025FB04F089FB06F00B
:10151000A3FBA042FBD010BD10B5041C06F02EFCAE
:10152000002004F017FB04F07BFB06F095FBA042C3
:10153000FBD010BDF0B5A3B002AF386106F01EFCC1
:10154000002009F05DF909F029F9002004F056FBAC
:101550005C4C694623685D6818681B694543EB1855
:101560000733DB08DB00C91A8D4602AAFA6103F0D3
:10157000BDFD03F0D3FD03F0C5FDFB695D19181C2B
:10158000291C7D6104F0FCFC23686C465A681B69C9
:10159000D3189B000A33DB08DB00E41AA54602AC33
:1015A000BC6106F0EBFB381C00212022203009F042
:1015B00093F9444C20202368012519681A79C155F4
:1015C00021202221C255CA550533DB7F2520232245
:1015D000D355C35D7F229343FA692B43C1190B7026
:1015E00000920022131C0420053906F069FC796979
:1015F0002A1CF86905F054FC002004F0ABFA2568B9
:10160000B8696E682B69B4009B199C462E4B04196F
:101610001968BC60002363450CDA9A00B34203DA10
:10162000CC69B869A45802E04C6AB868A4588450E0
:101630000133F0E73C1C4034201C0021202209F03B
:101640004BF92968AB6821706670A3700535EA7F95
:101650007F26E27062790425B2432A4362711A4AF6
:10166000013312689B005269211CD31800222034D8
:1016700000930220131C06F023FC201C00212022D2
:1016800009F02AF9012323700E4B211C1B6810203E
:101690001A7905336270A270DB7FBA69E3706379EF
:1016A000B3431D43657100920022131C06F008FC31
:1016B00006F0D2FA3C69A04200D174E7BD4621B0E1
:1016C000F0BDC046D80200200000002010B5041C68
:1016D00006F054FB06F0C0FAA042FBD010BD00009B
:1016E000F0B58BB000AFB86103F000FD06F056FD19
:1016F000584C6E4623689D68DB687D625A00111C59
:101700000E319B00C9080E33C900DB08DB00761AD6
:10171000B546F61A6D4600216846B5467D61FE6005
:1017200009F0DAF8002004F015FA7E6A4A4A2068C7
:101730001568B20052420368BA60321C5A439100E5
:10174000F961B107711A79609107891A3A62013B10
:1017500023D344683E6A3219261C5E437618B400CF
:10176000FE68920034193C61FC69A2420BD03C69CE
:101770000426A418A4466C697642A458B44466466C
:101780003460043AF0E7BE683A6AA419FC617C6AE6
:101790007E68121B3A628919D9E7BC690B2C55D1B6
:1017A000002004F0D7F92B4B19682B4B08681C68F4
:1017B0007B6AB86143439A003A629A07D21A3A6147
:1017C000FB61844666464A68013EB4462ED36546B0
:1017D0005543FE692148B318121852197E693869B9
:1017E0005200B2182D18FE68AD0075199B003D60BF
:1017F0003E6AB3420ED03D68E81865690438066851
:10180000E858301A0025565F864200DA1080043B03
:10181000023AEDE7BD6876193E627D6AFE69761B85
:10182000FE617D683E6976193E61CBE70C49B86977
:101830007E23D2B25B4208704A708A70CB7001205E
:1018400052237A690B7106F075FBA9E7BD460BB010
:10185000F0BDC046D802002000000020FFFFFF7F3F
:101860003005002010B5041C06F088FA201CFFF794
:1018700037FF06F0F1F9A042F8D010BDF0B50378BB
:1018800087B0041C012B39D103F030FC1D4D071C1F
:1018900064682E6806F004FAFF36B07104AE301C9E
:1018A00006F038FA684606F001FA9037201C6946BF
:1018B0000F2208F0CFFF3B88002B03D01A0A2371B8
:1018C000627173802B6822780733FF331A70FEF73A
:1018D00039FE2B68049AFF33D9799879736805F03B
:1018E000BFFE2B680120FF33DC796408211C05F062
:1018F0004FFA201C05F050FF04F028FA012007B031
:10190000F0BDC0460000002008B5416803780A4ACF
:101910000A4812680068E83206301060002B03D0D5
:10192000C9B2002000F078F803F08AFFC0B206F0D8
:101930004DFB022008BDC04600000020E80F00203B
:10194000007908B5002804D10120FFF7A1FC03208D
:1019500004E00138434243410520C01A08BD00009D
:1019600070B5047A0678456806F024FC002C06D091
:101970000123012C06D104F0E9F9002302E0012340
:10198000042400E00524044A70B21268291C9269FC
:10199000FEF70CFF201C70BD00000020F0B5037A9C
:1019A00085B0056806790293077B06F003FC0524E1
:1019B0000390012F02D104F0C9F90324039B2A6884
:1019C0005978AB68029D70B20095FEF7A3FE201C0B
:1019D00005B0F0BD031C10B59A680C1C007859685E
:1019E000DB6800F031FB207010BDF0B5846887B073
:1019F00007784668656805910F22C168684608F057
:101A000029FF231C381C311C2A1C01F081F8059B7E
:101A1000187007B0F0BD0000F0B5CB4C9DB000AF22
:101A2000F86320687960407A43000133FB6578638E
:101A300003F0F6FE236878665B7AFF22D31A984299
:101A400000DD7B66786E7C6B041B3C636C4603F0A8
:101A5000EFFEBC65FC6D684665002B1C0833DB0897
:101A6000BA4CDB00C01A012363707C235B423A1C32
:101A70008546E370211CB1230020643223716E4639
:101A800006F058FA0023211C3C6B5A001819FC6D13
:101A90000133B052A342F7DB0223CB70321CE4B215
:101AA000632300204C700B717C6406F043FA2B1CFE
:101AB000BC6D0833A546DB08DB006846C01A8546C6
:101AC000C01A6C468546BC65386404F019FAF861A2
:101AD000012003F069FD00212A1C386C08F0FCFE8F
:101AE000B86D00212A1C08F0F7FEFC6D6846A400C2
:101AF000231C0A33DB08DB00C01A8546C01AFC62CF
:101B000078626C468546C01A8546BC626C46BC61EC
:101B1000FC69A400BC600024FC640021FA6AB86A75
:101B200008F0DAFE786AFF21FA6A08F0D5FE002490
:101B3000854BBC641B68BC6C1B7A9C4251DA3C6BC5
:101B40000026E4B2201C7C6103F094FE03F04EFEFC
:101B500003F01FFDBC697D6A3C62BC6AF86D01360A
:101B6000F217C30F86425341DBB23B61002B06D113
:101B700079698819C0B203F07DFE03F037FE6B4629
:101B8000FB60BB686A460A33DB08DB00D01A854677
:101B90006A467A6504F0BCF90020031CFA69934296
:101BA00005DA796D9A008A5801338018F6E72368C0
:101BB000984200D920602968884200D2286003F04A
:101BC000E7FC3A6A043501C23A62FB6838699D460F
:101BD0000434002802D103F0DCFCBFE7BC6C013404
:101BE000A6E700255A4E2C1CB96A7A6AA300C85889
:101BF000D358C01A864204DD3B6B061CE318BB6356
:101C00003C65854200DA051C03F0C2FCB96DFA6D33
:101C100063000134C8529442E6DB281C03F0B8FC90
:101C2000494B1B68DB88984206DAFC6B012C03D019
:101C30007C6EBC637C6B3C65FEF7C6FCFC6B012CC8
:101C400021D13A6C0023BC6D5900615A108888423A
:101C500000D21180FC6D01330232A342F3DB3C6DF4
:101C600063003C6C1A5BFC6C131CA24200D2231C68
:101C700036499BB27C6CFB64002002234C70CB7015
:101C800008713A6C19E0F86B304C022808D1796C75
:101C9000042300206170E3702071211CBA6927E0E1
:101CA000281C03F075FC7A6C80B2F8646270022321
:101CB0000020BA6DE3702071211C06F03BF93C6DE9
:101CC0006823DC53BC6B6A20C4533C6D6E216300F7
:101CD000BC6D6C201B5BFC6CC353CC531B490423B1
:101CE0004B700223CB703A1CB2230B710020683278
:101CF00006F020F9174E3C6D32686300111CE83184
:101D0000BC6D09681B5B09888B4227D9002925D047
:101D100008F07CFD041C08F0B1FCC379051C002B05
:101D200006D0012006F046F93368E8331D6027E04D
:101D3000002C25D1084B1B689B7C002B20D1012057
:101D400006F02CF91CE0C046E80F00208C000020B3
:101D5000FFFFFF7F00000020E40F0020E732127831
:101D6000002A0DD00E4C2068C2889A4208D9002063
:101D700006F020F90B4B22681B680632E8331A6024
:101D8000FC6B002C06D1BC6BE0B203F073FDBD46CA
:101D90001DB0F0BD7B68063B012B00D8BDE6F2E725
:101DA000E80F002000000020F0B587B000920391FA
:101DB000029008F02BFD061C05F0C0FF071C05F083
:101DC000C5FF7B4D01902B681A1CE4321278BA4291
:101DD00020D0002F08D0774900203B23021C0B7134
:101DE000022606F0A7F810E00199052400290DD17C
:101DF00070493C23381C3A1C0B7106F09BF82B6889
:101E0000E6331E78731E9E41F6B201242B68E4333C
:101E10001F701DE01A1CE532127801998A4216D013
:101E2000002906D1E6331E78731E9E41F6B23A238E
:101E300001E0392302265F490020021C0B7106F0E5
:101E400079F82B68019AE5331A70012400E0052423
:101E500005F00AFF071C05F069FF009B032B02D069
:101E6000002F03D107E00124002F36D0002005F019
:101E700003FF012431E02B68E4331F88002F2CD1AD
:101E80000099012902D0022904D00EE0009806F042
:101E900085F80AE0381C06F081F82B68E7331B78D8
:101EA000002B02D0381C06F085F806F071F82B687C
:101EB000071CE6331B7883420FD0002802D0112381
:101EC000012601E01223061C3A490020021C0B7176
:101ED00006F030F82B68E6331F7008F097FCB0422C
:101EE0004AD008F093FC08F0ADFB071C301C08F04A
:101EF000A9FB009008F08AFC301C08F081FC08F077
:101F00004DFC2D4B1B68DB7C002B21D0012C1FD0FE
:101F1000BB786A46DB06DB0E53747B7800995B075F
:101F20005B0F93748A7805ABD206D20E5A704A784A
:101F300002985207520F9A70039904AA06F088FA81
:101F400004F0F0F9002003F005FEFEF73DFB06E08B
:101F50002B680020CE33187003F050FE01240020BF
:101F600006F028F82B6800211A1CE7321170134A7A
:101F7000E833126806321A6008F048FC08F07EFB6D
:101F8000C379002B08D006F00FF82B68E7331A78D6
:101F9000824201D01870012405F0E0FE051C06F015
:101FA00049FC0379AB4200D00571201C07B0F0BD9D
:101FB0000000002037050020E40F0020E80F00207B
:101FC000F0B51D1C9BB004236F460E936B68002474
:101FD000061C073701203C70029403940494059476
:101FE00006900796089409940A940B940C940D9407
:101FF0000F931094119412951394149015921696B1
:10200000179118951993A20002AB240118190C4BD3
:10201000391CD3589847041C05F034FE094B1A6844
:102020002423FF33D35C834204D0E868FEF7C5FD68
:102030001BB0F0BD05F010FEB042E4D0F5E7C0469D
:102040004C00002000000020F0B5554F8FB00193E8
:102050003B68151C1A1C0024FF321C71D4721C61D1
:10206000061C009106F0ECFB4E4B019A1B6807948E
:10207000089409940C940D9406950A950B929A88ED
:102080005878FA2150438900FEF762F8009A3C68BC
:102090001378FE346081B34203D005F06FFE009BDD
:1020A0001E703B6800229A6005F08AFF041C03F052
:1020B000C7FBA04206D0201C03F0DCFB03226B46CA
:1020C000DA7257E038490020A623021C0B7105F094
:1020D00031FF0198FEF786FD39686C46081CC83050
:1020E000CA31FEF793FA314B31491B6802205B6815
:1020F0000B344B700423CB705B230B713B68DA69A4
:1021000005F018FF3B682B491A1CC83212880C20B6
:1021100003921A1CCA321288CC3304921B8803AA79
:10212000059301230B7105F005FF3A68211C107916
:10213000214A8300D318000106AA10189B6998470A
:102140003B68B4229A562868A968FFF72DFE052837
:1021500000D02070194B1A68194B9A4202D003F034
:102160007DFEFEE73B68174A9968914202D09A6863
:1021700001329A606C460B342378052B02D020780C
:102180000FB0F0BD05F07EFD24233A68FF33D35C29
:102190008342F4D105F060FDB04200D184E7EEE760
:1021A00000000020E80F002037050020D8020020A2
:1021B0008C000020930000204C0000202010002004
:1021C000CDCDCDCDFFFFFF7FF0B5484C85B0236866
:1021D000151C1A1C0191B1321278071C002A2AD052
:1021E0001A1CE6321278002A25D11A1CCE32117838
:1021F000002920D1B0331B78002B1CD10123137090
:1022000002F080FF061C02F071FFB37803AADB0620
:10221000DB0E5370737801995B075B0F9370031C9F
:102220003B33381C06F014F903F060FC022003F085
:1022300069FCFEF7C9F923681A1CCE321278002A0D
:102240004FD01A1C2A4F0020B03210703A6801900B
:10225000126A011C013A0ED30E265643B446AC4412
:102260006646B688002EF5D036B20131B042F1DABA
:10227000301C0192EEE71A1CE6321278002A13D1C4
:10228000012911DD06F0D6FA01230430C3673B684B
:102290001B6A013B0AD3019EB342FAD00E225A4375
:1022A0000021AA189180F4E7002904D023680022B5
:1022B000D4331A6008E01A1CD432D03311681B687A
:1022C000994201DC013111602368191C1A1CD431B8
:1022D000D03209681268914205DDB03301221A70CC
:1022E00001E0D4331A6005B0F0BDC0460000002004
:1022F000D8020020F0B5764D99B02A6802AF136875
:10230000926839605200991C514301335208396177
:1023100053430831C90804686E4EC9006846401A24
:1023200085460133306802A95B00CB1879612C2205
:1023300000213030BB6008F0CFFA00213A6978699B
:1023400008F0CAFA381C00212022183008F0C4FA1C
:102350002B687F211A6858683A769A687876BA7638
:102360000533DB7F0132FB767B7F92008B430421B8
:102370000B437B773368391C5B6902209A18009203
:102380000022131C183105F09BFD2068A1687A69B2
:10239000BB68FEF7ABFAB860052800D086E02E686F
:1023A0006A46F36A7A601A01131C08336946C81A30
:1023B000854602A97961081C002108F08DFAF26AAD
:1023C0007869E168FEF778FB2B6868469A6A0E2305
:1023D0005A43131C0833DB08DB00C01A854602ADE4
:1023E0000021281C08F078FA23697869291CE26822
:1023F000FEF79EFBFEF798FC374B1B68DB7C002B3F
:1024000004D12068A1682A1CFFF7DEFEE168281CC1
:1024100000F0A6FF07F0B0FC83000733DB08DB0009
:102420006946C91A2A4B8D461C6802AAA36AFA603B
:102430007B610E22013B5343ED18061C04353861C5
:102440007B69013B7B610FD300202B5E002B09DDF4
:102450003969FA680139880039611018291D042288
:1024600008F0F8F90E3DEBE73D1C3835002120223D
:10247000281C08F031FA61682068A3686970154962
:102480002870AB7009680534E27FC96A0133EA70CD
:102490005B007E22CB1852426A710093F2B2032095
:1024A000291CFB6805F00CFD7A68954603F0F2F9EB
:1024B00003F01CFB03F02CF8012003F04BFB03F0AE
:1024C0007FF9B8683B68BD46187017B0F0BDC046CC
:1024D000D802002000000020E40F0020F0B5A1B0D9
:1024E0000192052214925A6800241592019A01253E
:1024F000061C6F4604A81D911B490F3708950990CB
:102500000C9511951695189306251B921E931F90F6
:102510003F23201C221C3C700A940B940D960E94B1
:102520000F94109412941394179419951A941C965E
:102530000B7105F0FFFCA20008AB240118190B4B2E
:10254000391CD3589847041C05F09CFB084B1A68AB
:102550002423FF33D35C834203D105F07DFBB042DB
:10256000E9D021B0F0BDC046370500206C00002046
:1025700000000020174BF0B51B6885B01E689B68F3
:10258000B41C5B005C4300AF221C5B08FB6008329C
:10259000114BD208B86079601868D2006946891A70
:1025A0008D462C220021303008F096F9221C684616
:1025B000002108F091F9FA68731C534301336D460A
:1025C0005B006A46EB18B8687968FEF78FF9BD467C
:1025D00005B0F0BDD802002000000020F0B589B0A1
:1025E00004921A1C120C0E1C99B2059303910292CC
:1025F000041C06F005F9071C02F078FD051C022CEE
:102600003BD104231E403DD046793B680398191CFA
:1026100070430193FDF79CFDC343DB1718406B46E5
:10262000C4B2188A039B18184000019B01387043FC
:102630005900FDF78DFD0130B04200DD301CAD7951
:102640007F68C6B20298391C68430197FDF780FD88
:10265000C343DB1718406B46C7B2588A029B181851
:102660004000019B013868435900FDF771FD421C91
:10267000AA4200DD2A1CD2B207E000244679827902
:10268000271C02E0341C321C371CFF23381C1A4064
:10269000184012021C4024041043360620433043E5
:1026A00009B0F0BDF0B595B002AF38613B1C786E53
:1026B0006C331B7806780C1CBA617B60C44D002E0D
:1026C00000D0A4E01378082B0DD103F03FFB2B685A
:1026D00039699A690520331CFEF768F8B969052243
:1026E0000E703A6107E26846B860052003F032FADE
:1026F000B84B68461B689A6951005A6901324A43CF
:10270000131C0833DB08DB00C01A854602A9796177
:10271000081C311C08F0E0F82B683A69996978695F
:1027200005F006FFF86106F06BF8FA692E1C012A25
:102730000ED12B68FF335979002909D1E0301A7A7C
:102740000078904201D8197212E001321A7221E029
:1027500033680022FF335A711A729F4B38691B6825
:10276000796933331A7805F0E1FFFB69012B11D148
:1027700003F0ECFA062003F0EDF9786EB969002257
:10278000012303700A709549A323101C0B7105F0F7
:10279000D1FB37E0904D32682B68FC3233331B7825
:1027A00012685B009A420EDD03F0D0FAA36822683B
:1027B0000024009406200121FDF7ACFF3368FC33B0
:1027C0001C6003F0C3FA824B85491B68FC331A680E
:1027D0008A4201D001321A6005F0E6F805F09AF855
:1027E0002B683333187802F051FE002002F06EFEA1
:1027F000786803F03FF805F0A9F802F095FCBA6E8E
:10280000EC300260BB6805209D46386173E1724B75
:102810001B68598F343379601B78BB60BA682B68AA
:10282000101C1A6002F032FE062003F06BF92068DB
:10283000A168FFF79FFE3861052800D05BE1654D78
:1028400068462E683860F16A0A01131C0833C01A02
:10285000854602A9F960081C002108F03DF8F26ADB
:10286000F868E168FEF728F92B6868469A6A0E2333
:102870005A43131C0833DB08DB00C01A854602A943
:10288000F961081C002108F027F8F868F969E26886
:102890002369FEF74DF9FD6900264E4B1B689B6AC4
:1028A0009E4211DAE268F300D3182A88A91C1A8024
:1028B0006A88281C5A80EA880136DA80AA880E3590
:1028C0009A8007F0B1F9E8E7BB69396E1A78F869C0
:1028D00007F07CFAB969421ED2B208703C4B012A5B
:1028E00003D81A680021FC325160032809D0072858
:1028F0000DD0012800D0FCE01B680022FC335A6098
:10290000F7E0386E07F04AFD041E0ED000E01824F0
:1029100005F0C0F9304B1B681B6C18400123A34025
:102920001840431E9841404204407A68B868FA2132
:1029300050438900FDF70CFC254E051C33681A1C1A
:10294000FF329279022A07D1FC335B68834203DDB0
:10295000B86908230370002405F052FF396E381C53
:102960000B6824301A88BA845B88FB8407F08AF9E4
:102970003368FF339A79022A34D1DB795A071FD59D
:10298000182C1DD1381C283005F0C4F9B98D24202D
:102990003B5EFA8D994227DA388D0918994223DD7A
:1029A00026217B5E9A421FDA798D52189A421BDDEE
:1029B000012005F0A1F9B88CF98C05F091F988E0B7
:1029C0009A070FD51A2C0DD1012005F07BF980E074
:1029D00000000020D8020020E40F0020370500206E
:1029E000FFFFFF7F002C74D1454B1B681A1CFF3280
:1029F00091790122022905D1191CFC314968A942AB
:102A000000DC0022B8690178082956D1D2B2002A28
:102A100053D005F0ABF9002830D00224381C221C1A
:102A20003849203007F016FF381C211C203005F0F3
:102A300011FA052005F03EFA381C0021202228302A
:102A400007F04AFF396E28220B7B2D21D35529230D
:102A5000DC55CB5D7F2293432A20C4551C43802341
:102A60005B421C433B6ECA191B681470391C002260
:102A7000009305202831131C05F022FA03F036F8E4
:102A8000012002F0F7FC786E00241D4B04701B68D7
:102A9000201C1A1CFC3254601460FF3301225A714E
:102AA00005F010F9201C05F027F91749A223201C76
:102AB000221C0B7105F03EFA18E0FC335A681349EA
:102AC0008A4201D001325A6003F010F802F0E2FEAF
:102AD0000CE0282202212923D019D155DC5505F01C
:102AE000B9F903F003F8012002F0C4FC3868854608
:102AF00001E0002419E73869BD4613B0F0BDC046B7
:102B00000000002014A9000037050020FFFFFF7F10
:102B1000F0B5EBB00B936B46363300240D1C0A92D4
:102B20001C70071C02F0E2FA079002F0FDFA031C89
:102B3000EC331B680590069305F082FE6B46373335
:102B40001C2213A8211C1C7007F0C6FE1AAB13939D
:102B50005A4B1A68FF329379022B10D1D2791A425C
:102B60000DD0574BFA201B6880001B8F584303F091
:102B700053FA02F07FFC02F09FFC02F08BFE5149F9
:102B80000020A223021C0B7105F0D4F92B78BB4264
:102B900002D005F0F3F82F70484B00221B689A60B2
:102BA00005F00EFA041C02F04BFEA04204D0201CDB
:102BB00002F060FE042459E0069A13AB00930292DF
:102BC000153B6A460B9936320193039000230A980D
:102BD000FFF768FD0FAE041C301C05F067F810AB62
:102BE0001B880622099370AB1978337811401A407C
:102BF00091423AD15A0739D502F096FA3678079BB6
:102C0000089690331E88051C002E00D1099E05F001
:102C100047F810AB1E806946CB8F32043E311A4311
:102C2000CB888E881B0433430899FFF7D7FC0EAB83
:102C30000E908B21002269569A56914215D18C2113
:102C4000012269569A5691420FD18D21022269566E
:102C50009A56914209D18E22DB78AA565BB2D31ADA
:102C60005A4253415B421C4000E00024134D164A77
:102C70002B689968914202D09A6801329A60052CBB
:102C80000CD104F0FFFF2A682423FF33D35C834276
:102C900004D104F0E1FFB84200D181E7059B069A18
:102CA000EC331A6002F062FF6B4637331B78002B5F
:102CB00001D002F01BFF201C6BB0F0BD0000002013
:102CC000E40F002037050020FFFFFF7F7047000062
:102CD000F0B5A7B000AF061C02F008FAD04B1C6894
:102CE0006368226858005A435100D2185200131CDE
:102CF0000833DB08F864DB006846C01A85466B467B
:102D0000396200217B6407F0E7FD636822689D005B
:102D10005A43D3189A00131C0A33DB08DB006846B9
:102D2000C01A85466B460021FB6307F0D5FD63683A
:102D3000226898005A43D3189A00131C0A33DB0800
:102D4000DB006946C91A8D46B864FF2168463863BE
:102D500007F0C2FD0CCC5A43D3180733DB08DB0065
:102D60006946C91A8D466B46701E00217A627B61E6
:102D7000F8623964162810D80123AA4A8340134206
:102D800006D1A94A134208D0A84B1B682E3302E093
:102D9000A64B1B6830331B783B64BB6CFA6C386CF9
:102DA000AD0852089B080138FD61BA613B61B86407
:102DB000BA6C013200D18EE0F96A022904D9331CC1
:102DC000113B012B00D982E0002002F0C3FE944B9E
:102DD000974A1B681568BB621B68BC6D7B657B638B
:102DE0007B6B013BFB646FD3BA6A5468013C611C86
:102DF00067D0BB6A786B9B686969FB604343E318E3
:102E000001339B005858032E2AD004DC012E06D033
:102E1000022E0BD0EAE7331C113B012BE6D8EA69FE
:102E2000A3009B58C01AC343DB171840F96CFB6919
:102E3000FA6B4B43E3189B009A58F96B8018BA6CF5
:102E40005850002AD2D1F96CBB694B43E3185B00A0
:102E5000396CBB63FDF72EF9BA6B7B6CD052C5E7BA
:102E6000F96CFB694B43F96BE21892005258BA6354
:102E7000824200D2B863B96BFA6BE3189B00995099
:102E8000FB6C3A69396B5A43A3189B007A605A5815
:102E90009446824200D984467B68386BE1188900E9
:102EA00062460A50B86B7F21831AFD2B01D85B085C
:102EB00099B2BB69FA6C786C5343E3185B00195202
:102EC00094E7FA6C7A638BE7F86CBC657865B96C4B
:102ED0000139B9646CE7524D1A222B681868596899
:102EE0007863F9641C690533DB7F381C00215C3092
:102EF0003B6307F0F1FC7A6C3B6A101CD118321C62
:102F000000F08AF9112E6DDB122E0DDD132E69D122
:102F10007A697B6A786CD118002203F0C1FFF86CE3
:102F20000021386439635FE0112E0CD12B68F86CF6
:102F30005B680138013B3C1C002138647B625834DB
:102F4000B96201220DE07B6BF86C013B7B632B685F
:102F50003C1C1B680121013B7B6238645434B9621C
:102F600000222D68FA622B687B657B6D591EB9645F
:102F70007965002B34D06868B865BA6D531EBB659F
:102F8000002AF2D0B96CB86ABE690A18F969F86A01
:102F90004A43C1188A18F96B92005058B96CFA6903
:102FA0004E434A4384469A18F86B9200125821689F
:102FB000786A9E19760081420EDA6146FA208B1AF1
:102FC0008000891858434910002900DC0121FDF7D1
:102FD000BFF87A6CB052D0E7786C00233352CCE75C
:102FE0001C1C01E0FA6C3A647B6B386CF96C3D1C7C
:102FF00078353A6B2B706870A970381C391C7E23A9
:103000005B42EA705C311A227E306B712C7107F0E2
:1030100021FC281C796C04F0C3FEBD4627B0F0BD2E
:10302000D80200200400400003000300E40F002049
:1030300000000020F0B54F4B85B01B6800AF9A69C7
:10304000396001684568796051005A6901324A4324
:10305000131C0833DB08DB006946C91A8D46F9608A
:10306000081C002107F038FC434CF86823682A1C30
:10307000996905F05DFA414EB860012822D102F04D
:10308000F9F92568BA682B1CFF33DA7233682869AE
:10309000DB78BB602B1CFE335B89191CFB60FDF7E2
:1030A000ADF8BA688A4209DCFB6828699B1AF9689E
:1030B000BB60FDF7A3F8BA688A420DDC74350123C2
:1030C0002B7009E03368281C5A78F96805F02EFB4C
:1030D00023680022FF33DA72FDF726FE2368FF33F0
:1030E000DB7A002B07D002F0D5FB02F0FFFC0020BA
:1030F00002F030FD37E002F0CDFB02F0F7FC02F009
:1031000007FA012002F026FD02F05AFB25682B1C6D
:10311000FE3359892869FDF771F8F960002907D154
:103120002B69002B04DD02F0F3F9F86802F012FDC0
:1031300025682B1CFE3359892869FDF75FF8336831
:10314000DB7899420FD12B698B420CDD2B1C743339
:103150001E78002E07D179680868696905F0F8F8CB
:10316000236874331E703A680523BD46137005B09A
:10317000F0BDC046D802002000000020E80F00206B
:1031800008B504F0BDFC08BD0C4B10B51B681A6BEC
:10319000002A03DD996B5218D10F0BE000218A42FF
:1031A00008D1074909680A24085F9C6B0121844201
:1031B00000DB111C6833197010BDC04600000020F0
:1031C000E80F002010B505F01BFB124B1B68196BB4
:1031D0001A1CF432002915DD041C84342488A14211
:1031E00010DA64248230614300889C6B6043C142E2
:1031F00008D5191CE6310978002901D1012100E028
:10320000002111701278002A02D0683300221A704F
:1032100010BDC046000000207047000010B502F04D
:1032200065F802F0A3FC02F025F801F0D7FF174B78
:103230001B681A7A164B1B68FC33002A01D0002247
:1032400000E00122DA60A023DB059A8B0C218A437F
:103250009A83998B032291439983D97F00249143C8
:10326000D9779A8B30218A439A835C639A6B3F218A
:103270008A439A6362B603F055F8201C211C03F0C0
:1032800087FDA04201D003F0A1FE10BDF80F002081
:103290008400002038B5041CFDF726F9051C05F054
:1032A000AFFA291CF4310B78002B24D0124B0022EA
:1032B0001B68DB6A013B07D3180120180825405F13
:1032C0000028F7D10122F5E70C4B1B68186B00288A
:1032D00011D19D6B002D0ED1F833002A0AD01A6847
:1032E000FE2A01DC01321A601B68052B03DD002376
:1032F0000B7000E01A6038BDD802002000000020EA
:1033000070B5051C0C1C161C04F06CFD002802D0C6
:1033100001280AD023E00E204643AD19EA88FF2396
:10332000FE2A00D8D3B2637119E00E20704328182A
:10333000C288FF23FE2A00D8D3B263710B220A236E
:103340008256C3560921D31A0822415682568A1A38
:10335000934202DDA371E27101E0A271E37170BDDD
:10336000F0B5A04B8FB01B6803909E68DF68059690
:1033700001971E695F690496069707919F6904F09B
:1033800037FD994B01261B68E4331B780296002B0E
:103390005AD00026079D039C02960096934B009EF0
:1033A0001B681B6A9E424FDA2B880AA803806B8831
:1033B000438006F067FC0420235E002B3EDD23885B
:1033C00009AE33806388301C738006F05BFC0021FB
:1033D000735E059A9A420ADA0198984207DD022143
:1033E000725E049E964202DA069E964224DC042017
:1033F0002A5E002A1DDD7E4A009E126894209219E2
:1034000080001218127952B2012A12DD059EF21BB9
:103410009A420EDA019EF2199A420ADD09AB049E25
:1034200002201B5EF21B9A4203DA069EF2199A42B0
:1034300002DC0023A38001E001260296009E0835ED
:10344000013600960E34A9E70127039D079C0197DA
:10345000664B019E1B68013E1B6A00969E4200DB84
:10346000B3E023880AAE33806388301C738006F093
:1034700009FC04202B5E002B78DD2B8809AF3B80F4
:103480006B88381C7B8006F0FDFB594B39887A88A5
:103490001B68009F8C46DB1968331978554B3088C0
:1034A0001B687688002901D1453300E046330427A4
:1034B000E15F1B78002910DD36B211B2891BCE17EF
:1034C00089197140994208DA674600B239B2091A7F
:1034D000C8170918414099426DDB029E002E6AD040
:1034E0000BAE337880277F421F43DF200740287BC5
:1034F0000123402118400F4310239F4300010199ED
:103500000F233843984319406746014338B2777810
:10351000001218409F43317011B238430912F27003
:10352000AA880340090119436046131C12B2717046
:10353000B070FF2A00DDFF23311C009A039833711D
:10354000FFF7DEFE301C04F05DFC294B0421625EB7
:103550001B68002A04DD009E01229B19683303E0EA
:10356000009F0022DB1968331A7020E00420235EDC
:10357000002B20DD0BAF00210C22381C07F0ACF92A
:10358000019A0F231A4040210A433A700122B25691
:1035900003203056944631887288664600013340D5
:1035A0000343381C7B70B970FA7004F02BFC2B8835
:1035B00023806B886380AB88019FA380EB880137F1
:1035C000E38001970E35083442E7094B1B681A1D4A
:1035D000D26F191C743108330A70DA6704F026FCC4
:1035E0000FB0F0BD1410002000000020D802002011
:1035F000E002002010100020F0B5BB4BA5B01A6807
:10360000242310900B91FF33D35C0D93B74B0D9C8B
:103610001B680493B64B1B681B6A0993012C03D1EA
:10362000B44B1B68E13302E0B34B1B683C331B789F
:10363000099D11930E235D43109F00247F19099A61
:103640000E950F973B1C03940C940E3B013A0BD341
:10365000D988039D8D4200DA03910427D95F0C9C21
:103660008C42F2DA0C91F0E7A34B01211B68109F0A
:103670001A1C52321278099D91401A1C533212784A
:103680005433891A1A78013D8B1ADBB214930E9BBE
:1036900008950E3BFB181C1C0593099B049D902765
:1036A0000933BF00EA199B00089DD318043407931F
:1036B0000695069F013700D1C7E00027E35F002B86
:1036C00000D1BAE08C4B0D9F1B681A1C473215784D
:1036D000002F04D11A1C608802CA14330BE00D9F1E
:1036E000012F0BD1834B60881B681A1CF8320D33F5
:1036F0001168FF33043204F01CFD061CFCF7F4FED5
:10370000F43002787C4B002A05D01A6829321278EE
:10371000964200DA161C1A68131C48331B78002BDB
:1037200001D1642349E02B1C744F049DEF191397BA
:10373000787B1590002820D10021675E64217943B1
:10374000CF2080008C4629181D1C7543AC4512DD26
:10375000B74210DC8D68AC460125AC4467468F60EB
:10376000644F3F6880373F78BC4506D11398457356
:10377000159D8D6001E000208860049F5F483D1822
:10378000697B002913D00027E15FCF20049F8C467E
:1037900080003918B44508DD8868119F01308860C1
:1037A000B84204D10020687300E000208860049DC6
:1037B000524FE919497B0029B3D0049D9027BF00DF
:1037C000E919069D4819057D0027E05F002D03D00B
:1037D000119F6DB2BD4220DC642141437343994285
:1037E0000EDB131C44331B78039D61886B439B11D4
:1037F000994205DB136C0C9F7B439B1198421CDAAA
:10380000079D049F902000238000638023802B600D
:103810003B185A68013A5A600FE028321278384D46
:10382000724368435343984207DA079D002363803D
:1038300023802B604B68013B4B60069F079D013F37
:10384000043D06970E3C079533E7049C9025AD0098
:10385000089E63190022109F0E9C5A609A19143218
:10386000099D0C923A190C3A0B9E03920B9FEA00A9
:10387000B6180A21083ABA186943079202320D9223
:10388000204A089C8A180692089A90256C325200A9
:103890009A1804320A92089A0E96743252009B18B3
:1038A000083310930C236343AD00049E5B19F31897
:1038B0001393099D013D099500D28BE30F9C0F9F47
:1038C0000A3C0025635F0E3F0894002B00D16FE295
:1038D0000C9E119A337806320133DBB259B2914211
:1038E00012DC337014E0C04600000020E00200202B
:1038F000D802002014100020101000203F03000008
:1039000010270000780F0020119B0C9C04332370BB
:103910000C9D0023EB56012B07D1059E079C338895
:10392000039D23802B880D9E33800C9D00242C57F3
:10393000012C63DDA01C0321FCF760FCCEB21296C3
:10394000022C45D1A24B079C1868A24B0022A25E14
:1039500019680D9E4C69096905684910511A40683B
:103960000023F35ECE170138891900027140401A16
:103970007F2809DD64101C1BE017013D24182D026F
:1039800044402D1B7F2D13DC059C039D0020205EF1
:103990000021695E801AC91A05F07CFB0B2807D943
:1039A000079E059C33880D9D23802B88039E3380C2
:1039B0000323013B1CD3139D059C5A00AA182088A1
:1039C000111C5A31039E0880318860321180F0E763
:1039D000099D06236B43079CC918049E22887E4BD1
:1039E000490071180D9CCA522288A8239B00CA5214
:1039F000059D039E2D8836881B951A96774B1B686C
:103A00001A1C9C321278012A4DD19D331B78099CD7
:103A10009C4248DA724B1B681A1CE6321288002A54
:103A200041D1CE331C78002C3DD16A4B059D1B68DB
:103A30000022AA5E191C90310968039E4A43191C92
:103A4000121494311C9209680022B25E099D4A4307
:103A5000D020684312140C9E1D921E941F94A03017
:103A600000221818B2561EA91CAB00F08DFD099952
:103A70003420D02660434E43564D80192A68A0302A
:103A80001018211C1CAA00F0DDFEA20020AB01349E
:103A9000D050042CEBD12868A0368019391C1EAAFE
:103AA00001F03EF851E10C9C00256557012D00DC2A
:103AB0004BE1032D00DC34E1099F06267E43129F73
:103AC0004548BC19049F64003C19205A03211590F5
:103AD00012980430FCF792FBA8239B008919490037
:103AE0003D4AE05A79188F5A1690C95A042D0ED1C2
:103AF000059D0020285E079D0023EB5E039DC01AF4
:103B0000C217801850400022AA5E0D9D0DE0059D51
:103B10000020285E0A9D0023EB5E039DC01AC21799
:103B2000801850400022AA5E109D0023EB5E049D89
:103B3000D31ADA179B185340099AC018AB18294DAD
:103B4000294A5B191D78002D06D015685A352D8835
:103B5000A84208DC002505E015685C352D88A842E0
:103B600001DB01251D701B78002B3FD112688021DD
:103B7000131C5832128856331B8800924A0004F0F6
:103B8000C7FA059F144A0021795E061CA05E0B1A35
:103B9000DF17DD197D40039FAC4600257D5FA82718
:103BA000BF00E25FAD1AEA17AD18554065442B1C03
:103BB000321C06F0E9F8059B321C1880E05F039C7C
:103BC0002B1C0021615E06F0DFF8039D288084E055
:103BD000D8020020E00200209A0200001410002009
:103BE000000000201203000010100020159DACB250
:103BF000E71B169D3FB2FB0FAAB2DF197F10511AC7
:103C0000179709B2059FCD0F00203F5E6918039DED
:103C10000B970027ED5F49101995179D0B9F6319AE
:103C20005218199C1BB212B2A21AFB1AD817D51738
:103C30001B18521943406A409B1818910024802B8E
:103C400001DD1C1C803C129803210530FCF7D6FADC
:103C5000DB4B159A1F6889193B1C049E533349009E
:103C60005D78711810B21E78D64A149B58438B5E4B
:103C70007343C0180B9B6B43C0183B1C52331A781C
:103C800055371041159016983B7807B21498474362
:103C9000A8208000095E4E43BE19199F18997D43E4
:103CA0007519179E59437343159F114113411541CF
:103CB0008022F8186D18231C0B99D20006F064F8C6
:103CC000059E039F30808022231C0021795E281CE2
:103CD000D20006F059F8039C20800E9B089E043BFE
:103CE0000021715E0025585FB54D431A2F68DC171F
:103CF0001B1963403E22BA5E06F046F8089E0E9BF2
:103D00000F9C3080023B083C188821882B683E2796
:103D1000DA5F431ADD175B196B4006F035F8208037
:103D200013E0059E079F0022B25E0023FB5E059C08
:103D3000D3185B10039D0D9E23800022AA5E0023F2
:103D4000F35E039FD3185B103B800C9C0023E3566B
:103D5000119DAB4200DC1DE1089E0023F35E002BA9
:103D600000DC24E10E9B043B0027DA5F002A00DC24
:103D70001DE1079C069A21880A3A0D9D1180069A3A
:103D80002988083A11800E9A1B9F023A1188069AD8
:103D90000A9E043A11801A88069B1A9D063B1A80D7
:103DA000069B109C023B00221A7037802580FEE0A3
:103DB0000C9D0022AA56119EB24200DCC0E00E9F6C
:103DC000043F3A880B97002A00D1C1E07E4912B225
:103DD00009680C797D4909684F680E680731C87F0A
:103DE000002A21DD069A063A0021525E002A1BDDD8
:103DF000069A023A1278002A16D1069B079D0A3BC2
:103E000000215B5E0022AA5E0D9DD21AD317D21844
:103E10005A40069B0021695E083B00255B5FCB1A78
:103E2000D9175B184B40D318049D90229200A91813
:103E3000099D49198A7F0132D2B28A77604952B20C
:103E400009683D3109788A4203DD0C9E00233370F6
:103E50007EE096225200934258DD02239C4355D1C6
:103E6000079C0023E35E1D1C7F354FDB3F02013FB3
:103E7000BB424BDA0D9C0023E35E1D1C7F3545DB06
:103E8000013E361A3602FF36B3423FDA069B012264
:103E9000023B1A70079D069B00242C5F0D980A3B7D
:103EA00000215B5E0025455F6000C01A069B6A002A
:103EB000083B00215B5ED31A021C803203DA8027A4
:103EC000011B7F4202E0B8420ADD011B581B3A1B6E
:103ED00050432A1C4A438018FCF73AF9031C381C4B
:103EE0001F1C803704DA8026591B001B764203E032
:103EF000B34208DD591B001B751B4C436843001976
:103F0000FCF726F9331C059C208005E0079E059FE1
:103F100033880D9C3B802388039D2B800B9E089F3C
:103F2000338890253B800E9BAD00023B1A880F9B87
:103F3000083B1A80049C63195A6801325A6007E0F2
:103F4000049F099C224D0C9E3A195219337013702C
:103F50000C9E059F0F9C013E0E3F0E3C039D0C9650
:103F600005970E9E079F0F940D9C0E3D083E083F3F
:103F7000083C03950E96069D0A9E07970D94109F88
:103F8000139C0A3D023E023F0C3C06950A96109790
:103F900013948EE40123089E5B423380049E902795
:103FA000BF00099CF3191B1900229A77D0E7049FE0
:103FB000902080003B185A6801325A60EEE7C046F4
:103FC000101000209A020000E0020020D802002019
:103FD0001203000025B0F0BD08B5FFF70DFB08BDCA
:103FE000F0B58FB0059007910A920B930024404BD7
:103FF0001B68DB6A9C4278DA059F2301FB180820C6
:104000001B5E002B6FD0079FA300FB180327DF5711
:1040100008979B78013F5BB206930497089F04982A
:1040200001370997B8425EDC069E013E069B0133CC
:104030009E4255DC2E4B04991B6801319A680A9FF9
:104040005143481C80193D5C013D47D3DB6A9D42CA
:1040500044DAAC4242D0079FA300DB5F254F40000B
:104060003F687F8EBC46149FC05B834236DC069F50
:104070006046C91943430131149F4900C95B9B1134
:104080008B422BDA099F7A43B2180132149F5200F7
:10409000D25B934222DAA54202DB2B1C251C1C1C9E
:1040A000059821010DAF41180A31381C042206F091
:1040B000D1FB059A29015118381C0A3104F04AFC39
:1040C00000970A9F231C01970B9F05980297149F46
:1040D000079903972A1C04F05BFC2C1C0236A5E709
:1040E000049F023799E7013481E70FB0F0BDC04665
:1040F000D802002010100020F0B591B00A920C1CDC
:104100000F90FCF7DFF9FCF7E9F9904B07251B68E6
:104110001A7B0895062A00D808928D4A1268F43254
:104120001278002A05D11E7A07960A201F5E06978C
:1041300006E0884B1B681D7A07950A27DE5F069606
:10414000854D86492B680A9F5A6818684A709A6894
:1041500004238A70013292000870CB70BA18512380
:1041600002200B7103F0E6FE0022A31D7748DA77E8
:104170000233DA777F26631D0068DE772968E31D46
:10418000DE77049076484B680068013BDBB20D9007
:1041900074480C930B680568013B5BB2AC46059212
:1041A0000292002B00DA98E00C9E5F0072B2099731
:1041B000002A00DA8FE088685D1C4543049E0135C3
:1041C000AD18A800009537780A9D4E684059002F19
:1041D0000AD0351C5D430D9FBF187F5D6546039770
:1041E0004743A868784300135E43169F9619B600AC
:1041F000F6590F9F360C301A009E7500E853049E46
:10420000002854DB10257557A84213DB2768451B8F
:104210007D1925606569112701356561F757351CE2
:104220001026AE576568B84201DC861B00E0BE1B55
:10423000AE196660E668B04204DDD7B2DDB20E9713
:104240000B95E060089EB0421BDB251C08351F263D
:10425000AE57964200DAEA77E51D1F26AE57964222
:1042600000DDEA77A51D1F26AE579E4200DAEB77E8
:10427000651D1F26AE579E4200DDEB77059F013777
:10428000059785B2189F56000195BD5B019F7D196A
:104290002F1C189DAF53179D099EAF5B019EF5190A
:1042A000179F099EBD53029F3F18029711E01225E8
:1042B0007557A84206DCA768451B7D19A560A5694E
:1042C0000135A5612569A84200DA2061029E361AEF
:1042D0000296013A6CE7013B63E71F4B02981B68AB
:1042E0000125D968FBF734FF1F497C235B42221C60
:1042F000CB70E06176231C32281C0B714D7003F0EB
:1043000019FE059FA21D27621F21631D51561F2202
:104310009A56144B1B68914201DB1D7101E000228B
:104320001A710E9D231C0B9E28331D705E70E7686A
:10433000079D0120AF4205DA2369069ED80FF217C8
:104340009E425041C0B211B0F0BDC04604100020E2
:10435000000000200C100020D802002030050020B2
:1043600008100020DC0200208C0000200B4B0968A4
:104370001A682423FF33D35C094A1268D07B484370
:104380008011002B01D1137B04E0012B05D1054BDB
:104390001B68DB79984200DA181C70470000002087
:1043A000041000200C100020F0B595B01E1C5D4FCD
:1043B0001AAB1B780A923A6806900C1C0B930321E7
:1043C00051562020411A022010564900091A49105E
:1043D000554DC9B205912B68907A19781B790090D8
:1043E000D27A05980192029072681B9806F04CF8F8
:1043F00038682B687268067A19791B780096407ABB
:10440000059E019002961C9806F03EF800211822A5
:104410000EA806F061FAA3687F22180A190C00267C
:104420000D932272A27240B25AB249B21B162F6883
:104430006672E67205900791089304960598824289
:1044400051DC1B9D5300EB180993079B089E501CE1
:10445000B34246DCB9680A9D4143591801314E0008
:10446000755F5900AC461C9D664669180989761A25
:104470000999B4460E896546A91B0B9EB14213DD0E
:104480000B2565579D4200DAE3720A2565579D4268
:1044900000DDA37209256557954200DA627208258E
:1044A0006557954200DD2272CD1F072D08D80EAD4D
:1044B000ED5C0126AC46B44466460EADEE5401E018
:1044C000002904DD049D8D4202DA049100E0002100
:1044D000BE68069D704318180130800041510133B9
:1044E000B4E7021CAAE70DA80EA9069A00F072FB19
:1044F0000D4E0E493368049D5A68256018684A704D
:104500009A68069D8A707C2301325B429200087093
:10451000CB70AA18832305200B7103F00BFD15B097
:10452000F0BDC04618100020D80200203005002041
:10453000114B70B5444201209C421BDC201C0F49EA
:10454000FBF706FE0D49421C0D1C5543661BF31775
:10455000F6185E400A4B4000C05A52007043094EA4
:10456000AD19641BE51764196C40D55A6C430019EA
:10457000FBF7EEFD70BDC0466F1101001027000073
:1045800016A90000F0D8FFFFF0B50F1CAC49D3B05E
:104590000E6804909E36012A25D11C685868049B39
:1045A0000021FA221A63013100221C60D8605A608F
:1045B0001A619A605A619A61DA611A625A629A6261
:1045C000DA6234330429ECD1049DC8232A1CDB00B1
:1045D0000432AB61EB64AB65D367883213609360E0
:1045E00093625363D3630024A20000239219181C22
:1045F0001A255D4304994D192D6BD15A0233694335
:104600004018082BF4D1FA218900FBF753FD3853E9
:104610000234082CE8D10AA80021102206F05CF927
:10462000002534236B4304980EA9C3181B6B002488
:104630000693EB00F31805932B0159180791059A7F
:10464000069B105B395B5843FBF734FD0799630009
:104650002822C850D21869465258283310180234FC
:104660005850082CEBD10135042DDAD11EA80021B9
:10467000D0220EAD002606F02FF920AC0795069645
:104680000023049A1E1C181C079F1568F958103344
:104690004D434019D568343269437618402BF3D125
:1046A000069F6946BB0028335D58271C291CFBF771
:1046B0004FFD083F3860291C301CFBF749FD069E62
:1046C0006060002E35D00023049A1E1C181C079F22
:1046D000F958576810334F43C0191769343279437A
:1046E0007618402BF3D1291CFBF732FD271F3860C9
:1046F000291C301CFBF72CFD069EA060012E18D053
:104700000023049A1E1C181C079FF9589768103341
:104710004F43C0195769343279437618402BF3D18F
:10472000291CFBF715FD291C2060301CFBF710FD30
:10473000E060069D079E01350436069534340796E1
:10474000042D9DD126AC0027BA000EABD0180192E3
:104750000023049A9C4606930793059308930993B4
:10476000C1589569069E4D43AC44D56910334D43FD
:104770007619156A06964D43079E7619556A07966F
:104780004D43059E7619956A05964D43089E761908
:10479000D56A08966943099E343276180996402BEB
:1047A000DED101990AA80D586046291CFBF7D0FC00
:1047B000261C083E3060002F1BD0291C0698FBF7F2
:1047C000C7FC261F3060291C0598FBF7C1FC606000
:1047D000012F0ED0291C0798FBF7BAFC291C20607A
:1047E0000898FBF7B5FC291CA0600998FBF7B0FC02
:1047F000E06001373434042FA6D1049B00211EAAA7
:104800008D58521856689768D0681D605E601569AB
:1048100056699F609769D8601D615E619F61D0692C
:10482000156A566A976AD26A3431D8611D625E622F
:104830009F62DA623433D029E1D153B0F0BDC04673
:1048400014100020F0B5B44B91B0041C94461B68C2
:10485000012912D007DC00291BD1BE339F881D78A7
:104860000297DB8814E002290DD0032911D1BE3351
:104870001F8ADD7802975B8A0AE0BE331F895D7864
:1048800002975B8904E0BE339F899D780297DB899C
:104890000693012D61D0002D4DD0022D7BD1A7684C
:1048A000636820681911DB1908977A110A93676900
:1048B00023690918E0688A181911DB1909180D9283
:1048C0000B937A11A36A8A180C92DE0FE26AF6182B
:1048D0007110206AD60FB61876100997C718BF193D
:1048E0000197A069E7693F18206A0397C70F3F182F
:1048F00003987F10C719E0693F18606A3F18019854
:104900007F180397C70F3F1803987F10C7190497A4
:10491000606AE7693F187818216A676A4018F918D1
:10492000C018C91880199B18891803900E91079315
:10493000029BD6183BE02768A0690D97E7682E1CFC
:104940000C97029F07953F1804970E9501950395C4
:1049500009950B9508950A9529E0676820683B1131
:104960000A9727691B18E0683A111218E0690C923F
:10497000A269616A0D930B97029B4700BF1800263E
:104980007F184018C918049703900E910796019656
:10499000099608960BE0002607960E960196039658
:1049A000049609960B960C9608960A960D966746FD
:1049B0003F680D983F1A60464368029704980C9F21
:1049C000DB1BC7173F0F05933F18069B3F11FF18CE
:1049D000391C8001FBF7BCFB039906908801391C48
:1049E000FBF7B6FB019A0F90391C9001FBF7B0FB67
:1049F0000D9B06999A02029B4B43D3189B1223608E
:104A00000A9B0F999A01029B4B43D3181B019B12DF
:104A10006360089B0C999A01029B4343D3181B01C6
:104A20009B12A3608A02059B06994B43D2189212EF
:104A3000E2600B9A0F999301059A4A439B181B0158
:104A40009B122361099B06999A01059B4343D31846
:104A50001B019B1263618023049ADB005B1A5A439B
:104A6000D117890D8A189212A261002D05D1E56136
:104A700025626562A562E56239E0039A5A43D1175F
:104A8000890D8A189212E2610F9A0399524251439A
:104A900004920E9A8C469202111C61440392CA172A
:104AA000920D9446614489126162022D1BD10199D5
:104AB000019A4B43D917890DCB189B122362049B93
:104AC00007995A438B02D318DA17920DD318019A1B
:104AD000B6025043301AC617B60D30189B1280121A
:104AE000A362E06203E000232362A362E362029810
:104AF000059B40435B43C0186423391C5843FBF7B4
:104B000027FB40104042FFF713FD044B391C58436C
:104B1000FBF71EFB11B0F0BD1410002010270000A1
:104B2000F7B50024051C0191171C0093261C009961
:104B300062003B5B8858FA2158431A236343EB1801
:104B400018638900FBF7B6FA02348619082CEED1F7
:104B500000242F19386B311CFBF7ACFA343438635E
:104B6000D02CF6D10024201C261C221C2B6B29687B
:104B7000013259430818E9689E19594334350C1914
:104B8000042AF3D1311CFBF7E3FA311C051C201C6D
:104B9000FBF7DEFA041C002D01D0002806D10B49DA
:104BA0000020FA23021C0B7103F0C4F9084B1B68A8
:104BB0001A1C98329C3312681B6855435C43019A57
:104BC0002D14241415805480F7BDC04637050020ED
:104BD000E0020020F0B5574B93B000AFB9621968FE
:104BE000161C4A6838640868131C43435B0008338A
:104BF000DB08DB006C46E41AA546F8633B6C6846AC
:104C00007863DB783C6C5BB27B62A478550064B25D
:104C100094463C63FD62221C786A824258DCB86A82
:104C2000835C082B52D93C6C0023E3566046584302
:104C30000125655710187C6B40003D622018002547
:104C4000F861BD633D6AAB4240DC0624002B09D00D
:104C50008868584380188000345830184568806848
:104C600064192418886801337861584380188000DB
:104C7000355830186419F860FD6B8068013DB860E4
:104C800020185C1EAC4211D07C695D1C6543AD18D8
:104C9000AD00BD61755940197864B8697C6C3518F0
:104CA0006868AD6824187C64641900E0841DF868A5
:104CB00045680320684304190D204443FD69B86B1F
:104CC00024122C52FC6A0019B863BBE70132A3E737
:104CD0006246D3079A1A3B6BBA633D6C0322AA560D
:104CE000934223DCBC6AE25C082A1DD93D6C002299
:104CF000AA5664465443B86B7D6B2418E4186400CC
:104D00002C197C640020FD6A3C6C40190125655714
:104D1000AA4209DC8D68013255437C6C5D1901356E
:104D2000245AAD00AC51EEE70133D6E7BD4613B0CF
:104D3000F0BDC046D8020020F0B5304F85B00190DC
:104D400038680A1C031CFF3302909E790B1C143335
:104D500003930023022E2AD1029CFF34E4793442CB
:104D600025D01478012C07D10D7D651BE8172D186F
:104D70004540072D0DD108E0052C12D10D7D641B97
:104D8000E01724184440012C07D1541A0E2C12DDD0
:104D900013E05578002D06D00DE05478002C0CD08F
:104DA00009E0022C07D0033C012C06D803E0107860
:104DB0000C7DA04201D00133DBB2039D0132AA4237
:104DC000C8D10022022B15D80198012303700B7D56
:104DD000591EC9B2062901D8094A525C3868FF3009
:104DE0008179022906D1C079084203D0063B022B03
:104DF00000D81A22101C05B0F0BDC04600000020EB
:104E000026A9000013B51C4C019001A9201C042206
:104E100005F020FDA023DB05597960780F221040B2
:104E2000914301435971607859790009000111409B
:104E3000014359719979A0789143104001439971C8
:104E4000A17898790909090102400A439A71E17829
:104E500058680A4A8907890902400A435A60E1787A
:104E600058684907064AC90F890602400A435A6032
:104E700022781A7113BDC046EC0F0020FFFFFFFC23
:104E8000FFFFFFFB1B4A0323D178184099430B1CFB
:104E9000034330B5D370A023DB055C7955780F212F
:104EA0000D408C432C435C7155785C792D092D01A4
:104EB0000C402C435C719C7995788C430D402C43BD
:104EC0009C7194789D79240929402401214399718A
:104ED0005C6801060848204008435860D0785C6848
:104EE00040070649C00F80062140014359601278EF
:104EF0001A7130BDEC0F0020FFFFFFFCFFFFFFFB2E
:104F00001B4A01231840D37830B504248100A34301
:104F10000B43D370A023DB055C7955780F210D403E
:104F20008C432C435C7155785C792D092D010C4024
:104F30002C435C719C7995788C430D402C439C717B
:104F400094789D7924092401294021439971D478CA
:104F50005D680849A4072940A409214359605C6899
:104F60008106054820400843586012781A7130BD08
:104F7000EC0F0020FFFFFFFCFFFFFFFB1A4A0F2191
:104F8000937808408B43034330B59370A023DB052F
:104F90005C7955788C430D402C435C7155785C7975
:104FA0002D092D010C402C435C719C798C432043CE
:104FB000987190789C790009000121400143997112
:104FC000D0785C6809498007800921400143596015
:104FD000D0785C6840070649C00F80062140014335
:104FE000596012781A7130BDEC0F0020FFFFFFFCF2
:104FF000FFFFFFFB1A4A0F219378084000010B4086
:10500000034330B59370A023DB055C7955788C435E
:105010000D402C435C7155785C792D092D010C40B5
:105020002C435C719C7995788C430D402C439C718A
:105030009C79214008439871D0785C6809498007C1
:105040008009214001435960D0785C6840070649D7
:10505000C00F800621400143596012781A7130BD9B
:10506000EC0F0020FFFFFFFCFFFFFFFB194AA0230E
:1050700030B5DB0510705C7955780F210D408C43FD
:105080002C435C7155785C792D092D010C402C4323
:105090005C719C7995788C430D402C439C7194787D
:1050A0009D7924092401294021439971D4785D68B0
:1050B0000949A4072940A40921435960D1785C68B3
:1050C0004907064AC90F890622400A435A601871E7
:1050D00030BDC046EC0F0020FFFFFFFCFFFFFFFBD1
:1050E000014B18607047C046F80F0020014B18684C
:1050F0007047C046F80F0020014B18607047C0464B
:10510000F40F0020014B18687047C046F40F0020D0
:10511000014B18607047C046F00F0020014B186823
:105120007047C046F00F0020014B18687047C0461A
:105130008400002001207047F7B5184B00201A7832
:1051400052B2563228D11B789C46154B1878154B15
:1051500040B21F78144B7FB21E78144B76B21D7884
:10516000134B6DB21C78134B64B21978124B49B2D1
:105170001A78124B52B21B78019363465BB29C467D
:105180006044C01980194019001940188018019A0C
:1051900053B2C01A43425841C0B2FEBD5000020093
:1051A00052000200510002005300020054000200AD
:1051B00058000200590002005A0002005F0002007D
:1051C0008023DB020022188059809A80C046024B5F
:1051D000188880B27047C04606000400164BC022F3
:1051E000920098581549014099509958FF208143E1
:1051F00040200143995098581149014080200004F3
:1052000001439950985880210002000A0906014381
:10521000995002221A6001221A60082104221A60A1
:1052200019600F211960FC3300215960054B196981
:105230000A431A617047C04600E100E0FF00FFFF2B
:10524000FFFF00FF00ED00E013B5094A04241378C6
:105250000021DBB21C4301910198F421FF31884207
:1052600005DC1370C046147001990131F3E713BDDA
:105270000D00005030B5114B03211A68A0234232B3
:105280001478DB059D8BA4080D480C402840A4022F
:105290002043988310789C8B00090140080309493A
:1052A0002140014399831178988B8907064AC90FD9
:1052B000490202400A439A8330BDC046F40F0020E1
:1052C000FFF3FFFFFFCFFFFFFFFDFFFF0002064BD5
:1052D000000A0138002258609A6005221A60C04610
:1052E0001A68D103FCD5704710E000E0F0B5394FE3
:1052F00085B03C6803AD3D34211C281C042205F018
:10530000A9FA637801221B0901932B780421134326
:10531000022293438B43182293437F2213402B7026
:10532000019B0F261A016B78A478334013436B70EE
:10533000AB782407240FB343102223439343AB706D
:105340000399A025ED05A960FFF77EFF3B681821B2
:105350003D331A7818231A40AB688B431343AB6074
:10536000AB6804221343AB60AB6880221343AB608D
:10537000FFF7E2FE00280CD00D2C01D1164B06E001
:105380000B2C01D1154B02E0062C02D1144B1C78DA
:105390003440AB68134F144E3B40AB60AB681348CE
:1053A0003340AB60FFF792FFAA6880235B0313438F
:1053B000AB60AB6824041E402643AE600C48FFF788
:1053C00085FF0199AA680B0317401F43AF6005B022
:1053D000F0BDC046F40F00205A0002005900020040
:1053E00058000200FF0FFFFFFFFFF0FFFF0F00005C
:1053F000FF6F000010B50A48A0230068DB05D969DB
:10540000FC30C068032289080124844011402143F4
:105410000A4091009A8B0C2082430A439A8310BD64
:105420008400002010B50A48A0230068DB05D96974
:10543000FC30C06803228908012484401140A14344
:105440000A4091009A8B0C2082430A439A8310BD34
:1054500084000020A023DB05D869054B00071B68EA
:10546000800FFC33DB681841012318407047C046A9
:1054700084000020044B82B0019001AA1880927829
:105480009A7002B07047C0461800005007B500F08F
:105490009DFD074B019001AA188092789A70054BE8
:1054A00000221A70A0230122DB05DA7607BDC04670
:1054B00018000050740F0020034B00221A70A02324
:1054C0000122DB05DA767047740F002008B572B64A
:1054D000064B1B5C002B03D1C04662B630BFF6E71B
:1054E00062B60020FFF7CEFC08BDC046740F002056
:1054F00008B572B6054B1B5C002B02D1C04662B6E4
:10550000F7E762B60020FFF7BDFC08BD740F00206E
:10551000A023DB05DA680121120ED8689143034A03
:10552000090602400A43DA607047C046FFFFFFFEEB
:1055300073B51F230130002418406A46C9B2009495
:1055400010704A1C02311A40A0250B406846ED0538
:105550009B004270C370281C6946082210300194D9
:1055600005F078F92B69C02293432B61074E802503
:105570002D012A1C211C301C05F0AEF9FFF7C8FFD5
:10558000301C2A1C211C05F0A7F973BD00400050F7
:10559000704708B5A0230120DB055870FFF796FF80
:1055A000FFF7B6FF08BD0000F0B5041C85B0E1B2FE
:1055B000544D55480191042C09D0A023DB05052C3E
:1055C00025D15249096879310E78B60706E04F4B6C
:1055D0001968A02379310E78DB05B6079F8BF60F8B
:1055E00076023D4035439D830E789F8B0325B60898
:1055F0002E40B6023840304398830978444A09095E
:105600000D40998B2D030A402A439A8360E0414E56
:105610000122316842310F787F0817407F020097DE
:105620009F8B009A3D4015439D830F780325BF084B
:105630002F40BF0200979F8B009A384010439883F9
:105640000978988B0909324A2940090302400A4324
:105650009A83019BAB423BD801229A400D231A4208
:1056600036D0FAF741FF031CCE331B7803AF002B73
:1056700003D0264B19683B3108E0E7300378002B54
:1056800009D005F0C3F804F0F9FF011D381C2A1CED
:1056900005F0E0F814E03368032C05D11A7A3A706B
:1056A0005A7A7A709B7A0AE0DA789206920E3A7009
:1056B0009A78D206D20E7A705B785B075B0FBB706C
:1056C0000020391C00F0FCFD0220391C00F0F8FD20
:1056D000114B64001B687F221C19231CBF331878F0
:1056E000A023DB05D968104091430143D960C03441
:1056F0002178D8680A401102084A02400A43DA6059
:1057000005B0F0BDFFFDFFFFFFF3FFFFF80F002026
:10571000FFCFFFFFF40F002084000020FF80FFFF79
:10572000214BF7B51A68214B101C1B681F30DC7A1F
:10573000531CD97F640651189500A40E20310190A6
:10574000551B01980139814221D04B788020D31814
:105750006833DE79A023DB05DF68C0033843270404
:10576000D8600097D868124FB60607400098B60E6A
:105770000743DF60C0460F4F7600F619B6888800F1
:1057800028180667DE680C483040D860D9E7531CFB
:105790000A49DB7FF0324B700423CB700F20B0231B
:1057A0000B7102F0C7FBF7BD84000020F40F00204E
:1057B000FFFFC0FF40000050FFFFBFFF8C00002034
:1057C00008B5FFF7ADFF074B07491A680F20531CB8
:1057D000DB7FF0324B700423CB70B0230B7102F0EF
:1057E000A9FB08BD840000208C000020044B00228F
:1057F0005A70A023DB055A7001221A707047C04608
:10580000740F002008B50120FFF73CFB034B00227A
:105810009A70A0230122DB059A7008BD740F002046
:10582000024B1B68E83318687047C04684000020AC
:10583000024B1B68E83318607047C04684000020A4
:1058400030B5A023DB051D79197918791A791C79EF
:105850002B077F25A843DB0F8010184356232340D6
:10586000184301230B40DB001843202313409B0007
:10587000184330BD38B5051CFFF7E2FF041CAC42ED
:1058800007D001DA013400E0013CE0B2FFF7EEFBA3
:10589000F5E738BD08B50020FFF718FE08BD000089
:1058A000034B1B689878C006800E01307047C046D5
:1058B000F40F0020024B1B6858784007400F7047D8
:1058C000F40F002000487047001000500048704757
:1058D000002000500048704700400050064A074B27
:1058E00012681B68AE325B79107802330138584376
:1058F000034B8000C018704784000020F80F002080
:1059000000400050064A074B12681B68D4325B798E
:105910001068023301385843034B8000C0187047A9
:1059200084000020F80F002000400050064B1B6848
:105930005879064B02301B68AA331B785843044B36
:105940008000C0187047C046F80F00208400002077
:1059500004400050F0B58BB000AFFAF7C5FD5D4BC9
:10596000CC301A880388D31803805B4B1B687B629A
:105970001B785BB2042B1CD1FFF7B0FF574B022200
:105980001968561EB44600D2A1E04B79013B0ED3F4
:105990004C797D6A02345443EE1827363678013448
:1059A000A619B6003658E418A4002650EEE7624661
:1059B000E7E7052B47D1FFF7A5FF494B3862187879
:1059C0005B78011CFB61454B78607C6A20301B686A
:1059D0008000013120180025BB6149000A30AC4627
:1059E0007A68FC69131C6344A34270DC1F22534392
:1059F0007E6A8D1EF3187D613B610A1C7D69AA4297
:105A00001CD0431E1B785BB200254557AB4213DA0E
:105A1000BE6975793E69023555436C1CF5182D7ABF
:105A20002E193D6AB60075593E6AFD601D19FC6865
:105A3000AD00AC510133E7E7013ADFE70126B4449A
:105A400002310430CCE7012B2AD16C463C62FFF7CF
:105A50006DFF224B6D461B685C79A200131C0A3354
:105A6000DB08DB00ED1AAD4669468E18FE610023A7
:105A70001E19002E10D0FD699E00AE197D6A043EED
:105A80002D19AC469C442625AC4465462D78013B37
:105A9000AD002D583560EBE704F0DCFE3E6AB546FC
:105AA000104B1B6847331B78002B10D00B4B1A6828
:105AB0005379013B0BD35079947902306043591CE0
:105AC000091809488900091800200860F1E7BD4657
:105AD0000BB0F0BD5000005084000020F80F0020F3
