:1000000000080020F50300000000000000000000D0
:1000100000000000000000000000000000000000E0
:1000200000000000000000000000000000000000D0
:10003000000000000000000000000000BD01000002
:10004000C101000000000000F9010000C50200002D
:10005000000000000000000000000000002934D073
:100060000123002210B488422CD301242407A1428A
:1000700004D2814202D209011B01F8E7E400A14247
:1000800004D2814202D249005B00F8E7884201D3E2
:10009000401A1A434C08A04202D3001B5C082243BA
:1000A0008C08A04202D3001B9C082243CC08A0422B
:1000B00002D3001BDC082243002803D01B0901D017
:1000C0000909E3E7101C10BC7047002801D000208C
:1000D000C04307B4024802A14018029003BDC046C5
:1000E000D90000000029F0D003B5FFF7B9FF0EBC1E
:1000F0004243891A1847C046002941D010B4041C55
:100100004C40A44601230022002900D54942002882
:1001100000D5404288422CD301242407A14204D2B6
:10012000814202D209011B01F8E7E400A14204D296
:10013000814202D249005B00F8E7884201D3401AAD
:100140001A434C08A04202D3001B5C0822438C08CF
:10015000A04202D3001B9C082243CC08A04202D339
:10016000001BDC082243002803D01B0901D0090929
:10017000E3E7101C6446002C00D5404210BC7047D9
:10018000002806D003DB0020C043400801E08020A7
:10019000000607B4024802A14018029003BDC04601
:1001A000190000000029EBD003B5FFF7A7FF0EBC34
:1001B0004243891A1847C0467047C046FEE7000010
:1001C00008B50A4B01221A70094B00221A7002F07E
:1001D0002BF9084B1B68187D002806D171331B785A
:1001E000002B02D0032102F07BFC08BD1C04002080
:1001F0003F0000400000002038B5A025ED052B6928
:100200001B011B0F082B0CD12D4900230B604B60E9
:10021000AA8A52BA081C8A600C30103103F012F915
:1002200040E0022B0CD1264BD96800293AD05A68FD
:100230001869824236DA501C58602B7D8B5431E0AD
:10024000042B2AD11E4CE368002B24D0226821699C
:100250008A4209DA9B5CAB61A3689A1890B203F0FA
:100260002FF92368013314E0A368201C211CD21845
:100270000C30103103F0E6F8E368002B0BD0A168D6
:1002800022688818A0601B7880B2AB6103F018F96F
:100290000123236006E0AB6104E0012B02D1084B8F
:1002A00000225A60C046A023DB05DA6801210A4318
:1002B000DA60C0468022D96852000A43DA6038BD4D
:1002C00090020020F8B501F095FC4369002B01D0A5
:1002D000013B43610123C3564269002B02D0012B2D
:1002E00019D032E0C16900292FDB314C314D24682F
:1002F000032664186479A40064192F4D24682D68BE
:1003000060352D786DB27543AD186D0069180831F0
:1003100089000C5019E0C169002916DB244C254ED8
:10032000246803276518ED7A2479AD00AD19224EB3
:100330002D6836686136367876B27E43B618760018
:1003400071180919083189000D50002A05D0802341
:100350000022DB051A70012226E082694261C2692F
:10036000013AC261002B06D0012B10D1104B1B6843
:100370009B18D87A03E00E4B1B689B1858790F4BDB
:100380001F211C6808408C43211C014319608023F5
:10039000DB050121002A04DB00221A705970197054
:1003A00004E0074AD17000225A701A70F8BDC046A6
:1003B0003C0400202001004000000020D400004048
:1003C0001C040020064AA023DB051A60054A064BE0
:1003D0001A60064A064B1A60BFF36F8F7047C0461B
:1003E000010300490101020004000050010F010156
:1003F00008000050F8B58023DB055A680F2313402E
:100400004B4A1F2111600133102B0CD08022D205E2
:1004100054680F21181C8C430840211C01430133F0
:100420005160DBB2F0E70023424A43499A188A42FE
:1004300004D24249C95804331160F5E7404B414AA0
:10044000191D043B934203D200221A600B1CF6E7ED
:10045000EFF308823C4B191D043B9A4203D93B48F9
:1004600018600B1CF7E7FFF7ADFF3949394805392C
:1004700001F0FEFB384C394D01235B42237163715F
:10048000A371E3712B1C3C331A782B1C3D331B7872
:1004900080B21B021343984245D102F0BFFF304B9C
:1004A00030491888304A88420BD06E7D18882B7DE1
:1004B00036023343984204D113889BB223711B0A3E
:1004C000637113888B421BD0EE7DA87D13883602A2
:1004D0003043834214D100200423013BDBB2FF2BC5
:1004E00007D0224EEF18F65C3F79B742F5D10120D4
:1004F000F3E7002804D013889BB2A3711B0AE371B1
:10050000637922791B0213438B420CD0E279A379E1
:1005100012021A43134B9A4205D0154B1B78312B0C
:1005200001D100F0EBF8134B04221A6062B6FEE72B
:10053000500000400000002090020020A038000081
:10054000940200201504002058040020CDCDCDCD0C
:10055000004000000000000026040020C03F000012
:10056000D03D0000FFFF0000BE3F0000D23D000074
:100570007200010000E100E0014B18607047C046C6
:1005800030040020014B18687047C046300400203A
:10059000014B18607047C04634040020014B1868B6
:1005A0007047C0460000002038B5094C256802F0AD
:1005B00083F9E861256802F085F9064A0649126860
:1005C00009682862127C097823684A431A6138BD99
:1005D00000000020300400203404002008B501F0A1
:1005E00013F9021E05D10449A9230B7102F0DAFEAA
:1005F000FEE7FFF7D9FF08BD2403002008B503F08C
:10060000DDF801F0EBFA08BD08B503F031F903F0AD
:10061000D9F801F0E3FA01F0D7FC08BD37B5314D48
:1006200000232A681479019303F070F80379002BF2
:1006300002D163B2013303D12B680024DC600FE0E8
:100640002B68D9681A69914202DAD9680131D960F8
:1006500004215956012903D0DB68934200DB0124B1
:100660002A6813799C4209D01F490020231C0E33AD
:10067000021C0B7102F096FE2B681C712B681A7914
:10068000002A03D1194A1268127804E0012A03D122
:10069000164A126852781A601A1C713211780022B8
:1006A000914200D09A6D191C70310978002901D04F
:1006B000D96D5218196801A802F08EF8019D041C2A
:1006C00002F0B2FA2D1A002D05DD201C019D02F06A
:1006D000ABFA281A00E00120019001F08FFC01F034
:1006E00095FE37BD000000202403002034040020C4
:1006F00008B503F043F801F08DF908BDF0B59DB0E1
:1007000006AF02F03DFD2E21C85503F077F803F047
:100710008DF801F065F8FFF761FF02F031FD2F223F
:10072000041CD055022800D16FE10D2800D1A1E1B1
:10073000002800D0A6E1D64E6D463D60356802F037
:1007400043FD2875356802F047FD7135287035681E
:1007500002F04AFD70352870CE4D2B6858689A68B3
:100760007861111839611969386951430918F960BC
:10077000D968F8684A43821892000A32D208D20037
:100780006946891A8D4606AABA613268111C603121
:1007900062320C704C7014709B683B62386A9B002C
:1007A0001A18FB6152000323F96903329A43511866
:1007B000BA60C21852189A43131C0A33DB08DB00D4
:1007C0006A46D21A954606AB7960181C211CFA6954
:1007D0007B6203F05CF82B68F9699A68786A92008A
:1007E0004018211CF86103F052F83A6A786AD30085
:1007F000C3183B622B68211C9A68386A520003F0C8
:1008000046F8B9687A6A8B089B00D318BB602B68DE
:10081000211C9A68B868920003F039F87868796A00
:1008200083089B00CB187B602B6801219A6878684D
:10083000920003F02CF83A69B8699300C3183B6141
:100840002B68211C1A699B6838695A43920003F08F
:100850001EF8F968BA698B00D318FB602B68211C5D
:10086000DA689B68F8685A43920003F010F8381C65
:10087000211C2822303003F00AF87869BB69B96975
:100880003B638300CB187B617B63FB683A69FB6346
:10089000BB68786ABA633B653A6A2B6878647868A3
:1008A000F969FA649A687865381CB9649201211C68
:1008B000423002F0ECFF3168341C0B7D012B00D973
:1008C000A0E001F0BFFA0525022D1BD005D8002DB0
:1008D00000D185E0012D0BD08BE0042D5BD033D30C
:1008E000052D00D085E001F0FFFDC0B202F090FDC3
:1008F0002068031C71331B78002B03D06830002163
:1009000002F0F2FA236871331B78002B1CD002F03E
:100910000BFE061C02F014FE051C02F017FE2368F5
:1009200000905C48191C006868314068B21C019056
:10093000381C3030029000200390DB69081C0493BF
:10094000B9692B1C00F028FD2068031C70331B784C
:10095000002B20D06830012102F0C6FA0025402289
:10096000D5554C4E3368DB689D4214DA002179621C
:100970003368786A1B6998420BDA0120032102F080
:10098000F1F8381C303000F055FC7B6A01337B6293
:10099000EEE70135E5E702F0C7FD061C02F0D0FDE9
:1009A000051C02F0D3FD216884460B1C70331B78B4
:1009B000002B15D0AB1C65460C350095354D081C39
:1009C0002D68321CAD68683001953D1C30350295AC
:1009D00001250395096A18320491796900F0DCFC5D
:1009E000381C391C3A1C2F302E31303200F04CF9B3
:1009F000051C02F0C5FB2F22D35D834200D163E7C3
:100A0000FFF776FE3D68AD463CE0FFF7F7FD02F0EC
:100A10007DFB002001F004FEFFF7C6FD02F014FC90
:100A200002F01CFC041E142C10D0142806D8052833
:100A300009D0062810D101F0C7FA0DE0172805D01B
:100A40001D2809D102E001F0B1FA05E002F00EFC28
:100A5000011C201C00F006FD02F092FB2F21CB5D53
:100A60008342DDD0FFF7D0FD002001F0D9FDFFF774
:100A70009BFD07E002F0E8FB02F082FB2F22D35D32
:100A80008342F9D02F25EB5D2E20C35545E6C046A5
:100A90000000002080020020F8B502F0E9FE02F01C
:100AA00077FB041C02F07CFB061C02F0A5FB104D3A
:100AB0002F6802F091FB713738702D6802F094FBBB
:100AC00070352870002C07D0002002F071FB002048
:100AD00002F074FB012408E0002E06D0201C02F076
:100AE00067FB201C02F06AFB0324201CF8BDC046F3
:100AF00000000020F0B58BB00491051C5B4900207C
:100B0000A6230592021C0B7102F04CFC584C594E66
:100B100023681F7D012F2CD170331B78002B3FD011
:100B20000023391C381C079301F0DAFF01F01CFC8C
:100B3000281C00F07FFB504A2368126807A89178B0
:100B4000DA6D196001F048FE07990290039102F0F6
:100B50006BF8039A131A381C002B04DD0298079FC8
:100B600002F062F8381A079001F048FA01F04EFCE2
:100B700016E0FFF753FD236870331B78002B0FD06E
:100B8000281C00F057FB33683C499B6802204B70DF
:100B90000423CB70F3230B7123681A6A02F002FC62
:100BA0000499281C059A00F029FB2168071C0B7D7D
:100BB000012B0ED001F07AFD336830495B680220CA
:100BC0004B700423CB7067230B712368DA6902F042
:100BD000E9FB2368562128685956FFF75DFF02900C
:100BE000002800D10297234B26681B68321C9968A5
:100BF0005F68331C703271331B7812785F434A434D
:100C000007ADD71900210C22281C02F040FEFFB2CC
:100C100001232B706F70AF70F669002204236B7193
:100C20000220131C0096291C02F082FB144B1A6848
:100C3000144B9A4202D001F0EDFDFEE701F0F8F905
:100C400023681A7D012A05D071331B78002B01D04F
:100C500001F08AFB236870331B78002B03D001203E
:100C6000011C01F07FFF02980BB0F0BD24030020AF
:100C700000000020800200203404002080000020BA
:100C800054040020CDCDCDCDF0B587B000AF061C0B
:100C90000C1CBA6002F040FD2B4B69461A68536881
:100CA00092689D009A189200131C0A33DB08DB003F
:100CB000C91A8D467961081C002102F0E8FD2278EE
:100CC00033789A4203D002F0BFFA337823701F4B77
:100CD00000221B689A607B695D19FD6002F092FB3F
:100CE000041C01F001FCA04204D0201C01F01AFCFD
:100CF000022425E07969FA68B868FFF7FBFE134D16
:100D000078602968041C097D396102F05DFA3B694D
:100D1000834205D02C6802F057FA207503240FE0B7
:100D20002B680B4A9968914202D09A6801329A6006
:100D30007968002904D102F023FA33788342CDD0B8
:100D4000201CBD4607B0F0BD80020020000000203E
:100D5000FFFFFF7FF0B58C461F24011C821C6346F9
:100D60004031961E35881788BD4205D937801580D9
:100D70001D785E785D701E70023201338A42F0D1B8
:100D8000013C002CE9D1F0BDF0B587B001930026FD
:100D90000CAB9E57041C0D1C171C02F0C5FB184B16
:100DA0001B6857331B78002B01D000232370247855
:100DB000002C12D02B78027C9A420AD301331149BD
:100DC00000202B70343E021C0E71002402F0EAFA5F
:100DD00012E000232B7001240EE0019B0A490493CA
:100DE0004F235B425E430920203603AA03970594F4
:100DF0000E7102F0D7FA2C70201C07B0F0BDC0466F
:100E0000000000202403002087000020F0B5ABB0D4
:100E10000C920A91041C02F087FB089002F090FBF0
:100E2000099002F093FBD14B0B901B681A7D002AAE
:100E300000D096E071331B78002B00D191E0CC4BB1
:100E40001B685F68002F15D0C84B20681B68099E7F
:100E5000013F191CDB6900900B98019702964068CE
:100E6000089A03903C3102320A9800F06BFE1AABEC
:100E7000F854E7E7BE4DBF492B687F225B68042624
:100E80004B70CB7880209343334340420343CB7075
:100E900001206A230A9A0B7102F084FAB34E2A6881
:100EA00033685068191C7131703309781B78926867
:100EB000414353430FA8CB180C22391C079302F06F
:100EC000E6FC079801220FA90A70C3B23D213E2219
:100ED000412069446A4468440B70137003787F2191
:100EE0008B4304228020134340420A9A412103434A
:100EF00069440B70012000920FA93A1C3B1C02F0C0
:100F000017FA3368196C181CDB6B63300693089B67
:100F100012229B5E069A00F067FC3368181C191CAD
:100F20001A6C6330DB6B64310097FFF72DFF0028EC
:100F300001D001205DE12B685D68002D11D0013DDD
:100F40001AABEB5C002BF8D1884B0B9E1B68692118
:100F5000B2681B682068019100950A9902F09CFB19
:100F6000EBE7824B1B6870331B78002B00D13BE111
:100F70007F4B1B689D68013D6B1C13D07B4B099A0E
:100F80001B6860680232191C1B6A02920B9A00905F
:100F90000195526824310392089A0C98183200F097
:100FA000D1FDE8E7724D73492B680C9A9B680120CC
:100FB0004B707C235B42CB70FA230B7102F0F2F989
:100FC00002F0B2FA694E071C3368996A5A6A181C13
:100FD0002823FF5E65303B1C00F006FC33680126C9
:100FE000181C191C9A6A65305B6A66310096FFF717
:100FF000CBFE002801D00320FBE02B689F687B1EFE
:101000009A011232A2185B0008920993013F00D2A4
:10101000EAE00EABFB5C554E002B0BD133680B980E
:101020006A2142691B686068019100970C9902F07F
:1010300033FBD2E0012001F0BBFA226A3368BD0025
:1010400051591A68F023534307901B1199421EDD32
:10105000A3695E193068FFF701F83060666972595C
:10106000002A06D06168121A4B191E689203B21A40
:101070001A6000214022089802F009FCA169206A48
:1010800000224B19425166691868705150E00023E4
:1010900012AE9B550133202BFAD1402208991AA891
:1010A00002F0ECFB311C1AA8FFF754FE3249002273
:1010B0000D91131C12A9595C8A4206DA5E001AA827
:1010C0000696365A002E00D00A1C0D98884206DD7E
:1010D0005E001AA80696365A002E00D00D910133F4
:1010E000202BE7D10D98121A0A2A14DD216A4B59D8
:1010F000202B10DD1F2A0EDC626A0123D355236AE0
:10110000A6696069002159514022715141510898E6
:1011100002F0BDFB0DE0154AA16912684B19126A75
:101120001E685259206AB2181A6043191A680132AF
:101130001A60666AF61906963378E6690D96079E78
:101140003104002B1AD0094E090C33681B6A585918
:10115000FEF784FF0D99099A0023885206980370C0
:10116000336861691B6A5B594B510FE00000002036
:101170008002002080000020FFFFFF7F6269090CD1
:101180005059FEF76BFF0D9E09997052E269099B59
:101190000798D65A184B81B21B681B6A5859FEF73C
:1011A0005DFF361A331C10331F2B0ED9616A0123E1
:1011B000CB55226AA369666900215151089859519B
:1011C0004022715102F063FB07E07B010F36F618F5
:1011D0007600A619738A01337382089E403E0896F2
:1011E000099E023E099611E70A980C9900F036FB19
:1011F00000202BB0F0BDC0460000002070B5141CCC
:101200000D1C061C02F082FA094B002118683022DE
:10121000243002F03CFB221C301C291CFFF7F6FD99
:10122000041E03D100F054FB00F0F4FB201C70BD41
:1012300000000020F0B5544D54492B68544E9B6873
:1012400089B04B700423CB70F9230B713368041CF5
:101250001A6A022002F0A6F82D683068AB689A007E
:10126000043A217C013B09D32F69066A5F43BC46DF
:10127000B6586144A7688900CE51F1E70131444F67
:101280002174AE683F68039607972F69039E237CFD
:101290000597013E039665D3059EB3421ADB039F73
:1012A000331C7B433B483218D2189200331C002079
:1012B000013B04D3A668B158043A4018F8E7EB683C
:1012C000039E677C73430599FF18FEF715FFE668D8
:1012D000BF00B8510598039F00237843217C0193F8
:1012E00099420BD02B4A0E18B618F61AA768B6000A
:1012F000019AF659013392190192F1E7EE68254BF4
:101300000027F018039B04977343C0188000331C18
:10131000627C9446013B0AD3634506D0E2681758C5
:10132000049ABC46171C674404970438F0E7079BEF
:10133000059A1F6A039B03987343511A6344E2683A
:1013400080009B0002909858019B4843059918180B
:10135000FEF784FE04990818311CFEF77FFE029EFA
:10136000F05192E7BB4201DB00232374237C002B66
:1013700002D1637C01336374627CEB689A4201DBC7
:101380000023637409B0F0BD8002002080000020BB
:1013900000000020FFFFFF3FF0B589B00793002455
:1013A00011AB1C570D1C05920F9F069002F0BCF864
:1013B000BA0004900021281C02F069FA264B201C78
:1013C0001E6804D1032101F0D3FBB06503E00121C5
:1013D00001F0CEFBF065049A1678002E0FD0201C89
:1013E000032101F0BFFB012C02D11098FFF722FF6F
:1013F000281C12993A1C02F017F9013EEDE7012C66
:1014000001D1109B1E74201C01F0D2F8061C201C78
:1014100001F0F6F802940190059906980E9A3B1C8B
:10142000009602F099F8049A281C13780599009305
:10143000079A3B1C02F006F9084C0E23A371042006
:101440006923211C2A1C23716770E07001F0AAFF38
:101450000023A37109B0F0BD00000020800000202F
:1014600070477047D34BF0B51B6897B05A689B68BC
:1014700002AFD3189C00F863201C0A30C508ED00A9
:101480000E1C6946491B8D4602AAB8627A63101C7D
:101490000021221CFB6202F0FAF96B465B1B9D46A1
:1014A00002A8FF21221CB86302F0F1F9FB6A694629
:1014B0000733DB08DB00C91A8D4602AA3A63101C09
:1014C0000021FA6A02F0E3F96B465B1B9D4602A815
:1014D0000021221C786202F0DAF9F96B17290BD08F
:1014E0001D2901D0142955D1786A002101F0FCFC96
:1014F000786A012101F0F8FC002E02D1AE4B1B6886
:10150000DE7CFB6A013B9B003B62002E42D0002048
:10151000092101F027FB0120092101F023FBFD6ACD
:101520003C6A013D6B1C33D000F05EFBA14B1B6895
:101530005B689D4203DA031C2C332B3002E0031C52
:101540004833473019780378C91A9C4BC9B21B68D5
:10155000DB691859FEF782FD7B6B1A59031E934213
:1015600000D2131C796BBA6B0B511359984200D9F6
:10157000181C796BBB6B09591851081A7F23FD2879
:1015800001D84008C3B23A6B043C5355013DC9E74A
:10159000013EBAE7B86A6946C308DB00C91A884C3D
:1015A0008D4602AAC91A7A618D46226802A838615E
:1015B000C91A507C8D46E12502A9AD004007F960AB
:1015C00007220021C823400F009501F095FF2368F2
:1015D000B862587C002140070722C823400F0095BD
:1015E00001F08AFF236838621879764B4006009331
:1015F000000F00210822744B01F07EFFB863F86BE6
:10160000142809D0172800D0B7E0FFF72AFF3A6B5B
:1016100001247A63251CB2E0396A6C4A6C4B521A79
:101620005A439212FA616B4AF869521A53436A4A52
:10163000FE6A9B189B121B1A013EBB60B500711C11
:1016400000D198E05B4B5E4C1B685B689E420EDAF3
:10165000002000F0D5FFF863002000F0A9FF236808
:10166000011C9A79D206D20F3A635A7E0EE001200D
:1016700000F0C6FFF863012000F09AFF2368011C08
:101680001A1C3432127836333A631A780024D2089E
:10169000231CD00702D55148984024180133520822
:1016A000052BF6D1454BFA6B1B68DB695859904006
:1016B000FEF722FD7B6AB200D3583D213B60DB037D
:1016C0009B0D4B43796B4B51796A525C5206520E1B
:1016D00004D009214A43D3187A6B5351F969431A4C
:1016E000E120C0005843B968FEF706FD7A697B6BBC
:1016F000396A50515B593A6B401AFB63B861002A52
:101700001BD0FA2080005843211CFEF7A7FCFB6881
:10171000BA69011C58519002FEF7EEFCBB6ABA6B25
:10172000191A3869FB6B415150185843511AFEF78A
:1017300095FC796B800A48511AE0BA6BB86A131AA3
:10174000B869191C60431C1CFEF7D6FCBA6AB96B59
:10175000FB6B386388185843211CFEF77FFCFA2185
:10176000840A8900386BFEF7C7FC241A786B445151
:10177000013E043D63E7FFF773FE00240425381C97
:1017800000210C22443002F082F8F96A012344203F
:10179000C355E401CBB24620C35525434921381C2B
:1017A0004522CD554430796BD35501F067FDBD46D8
:1017B00015B0F0BD800200203004002000000020A1
:1017C00038040020B80B000098080000E204000074
:1017D0008D0600002602000000FC3F005A020000B7
:1017E00008B501F033FC08BD10B5002A02DD8A18E7
:1017F000D40F06E00024A24203D10124994200DB69
:10180000141C047010BD0000114B642210B51A8026
:1018100000F0A2FE00F094FB00F02EFB00F05EFA58
:1018200000F086FA00F004FB01F030FA041C00F02E
:101830002DFA084B1B681A78074B1B68002A01D049
:10184000032200E002221A6162B6201C10BDC046CD
:10185000BC0000403C04002078000020F8B51A4B82
:1018600000241E68071CB4600D1CFEF797FE037D64
:10187000A34211D1154B1B685C68621C9200B21820
:101880000832231C013B07D399007958002900DC5A
:1018900000211160043AF5E770300378002B11D075
:1018A0000A4B1B689B681A1901329200B218083261
:1018B000013B07D399006958002900DC0021116021
:1018C000043AF5E7F8BDC0468802002080020020F7
:1018D000F0B54C4B85B01E6801F0F8FC4A4D002372
:1018E000B3602B685F689C68FEF758FE0390037D29
:1018F000012B01D03C1901E02B689C68251C671E58
:1019000017350134331D6D00A4005D191C19043511
:101910000434791C74D03C4B1B685A683B4B97428B
:101920000ADA0398027D002A04D11A68117801911D
:10193000527805E0012A04D11A68D0780190127912
:1019400002922268002A0BD0A169002903DC0198C9
:10195000824205DA02E002998A4201DA002222601C
:10196000216800292AD02B88294A18B2904201D038
:1019700001332B800022AB5E022B0CDD234B1B6856
:1019800008201A5EA069431AD8171B184340A069A3
:1019900001F0E6FE20601D4B00216A5E1B685B794A
:1019A0009A4203DC01235B42236002E0B368013307
:1019B000B360F3193E3300221A701DE01B68002249
:1019C000A85E00935B79984215DDE368002B13D085
:1019D000F0193E3002788446501CC0B26246107046
:1019E00040B2844600988279944504DC2360B36851
:1019F0000133B36000E02980013F023D043C88E7E9
:101A000005B0F0BD88020020800200204C040020B8
:101A1000FF7F0000F0B5474B87B01E6801F056FC11
:101A200001F04EFC444C039023685F689D68FEF70C
:101A3000B5FD0290037D012B01D07F1901E02368E1
:101A40009F687C1CA40034197D1E08340F231F409E
:101A50006B1C5AD0002205AB1A809A70364A126865
:101A60005268954203DA0298017D012903D1197861
:101A700040200143197005AB19780F208143394389
:101A8000197095420BDA02990B7D002B05D12B4B77
:101A90001B681A7800925B7806E0012B05D1274B72
:101AA0001B68D87800901B790193E268019923683C
:101AB0008A421EDC009883421BDB05AA1078802135
:101AC0004942014311700399042904D1FF2B00DD21
:101AD000FF23537020E0039A092A1DD1184A93422C
:101AE00000DD131C5BBA05AA9BB253701B0A9370EE
:101AF00012E00098824202DB01998B420CDD2268E1
:101B0000013DA261013F043CA0E7B3683371F3607B
:101B100001F0FAFB07B0F0BD05A801F0E1FB684653
:101B2000017D0122C909281C00F086FD2168E160C1
:101B3000E5E7C04688020020800200204C04002017
:101B4000FFFF0000F0B5069D1D4F00240C604C60A7
:101B50000F61AC001D591378002B04D0079E069B23
:101B6000F6567543AD11059E33599B0B5B1B002B3D
:101B700009DD0A26955FAB4214DB5D1B0D608D68A5
:101B800001358D600EE0002B0CD00C26955FAB422A
:101B900004DC5D1B4D60CD680135CD604D69AB4205
:101BA00000DA4B610351BB4200DA054B0B6106269C
:101BB000925FD817D10F93424841C0B2F0BDC046E2
:101BC0000080FFFF014B18607047C0463C040020B6
:101BD000014B18687047C0463C040020014B186058
:101BE0007047C04638040020014B18687047C04653
:101BF00038040020014B18687047C0467800002068
:101C0000F0B5134B134A1F781578134AFFB21678B4
:101C1000124AEDB21178124AF6B21478114AC9B2DA
:101C200012781B78E4B2D2B20020AA2B0ED10E4B50
:101C3000ED19AD191B78EDB29D4207D10B4B601821
:101C40001B788018C0B2C01A43425841C0B2F0BDE0
:101C50005000010051000100520001005800010035
:101C6000590001005A000100530001005B0001000F
:101C700080235B040022188059809A8019890120F2
:101C800001431981C046988980B27047104BC02229
:101C9000920098580F49014099509958FF2081436C
:101CA000402001439950985880210002000AC9053C
:101CB00001439950042201211A601960082119601A
:101CC000FC3300215960044B19690A431A617047BB
:101CD00000E100E0FFFF00FF00ED00E013B500228F
:101CE00000920192104A6846126801AB148E2E329F
:101CF000117842787F208243222002436846427056
:101D000000988022D205506218882405000B240D0B
:101D10000003204318800198044B090303400B4340
:101D2000A832136013BDC04638040020FF0FF0FF37
:101D30003C4B70B51E688024331CE4052A331978A7
:101D4000231CC03318687F2290431140021C0425D5
:101D50000A43201C311C1A6018312A1CD83001F0AB
:101D60008DFD201C311C2A1C1C31DC3001F086FD4D
:101D7000201C311C2A1C2031E03001F07FFD201C8A
:101D8000311C2A1C2431E43001F078FD201C311C68
:101D90002A1C1031143001F071FD236B082293438B
:101DA0002363236B02222B432363236B7619934314
:101DB0002363236B012213432363F27FA16C013A57
:101DC000194BD2B292030B401343A364A26C80233D
:101DD000DB031343A364231CD4331968F022D2021B
:101DE0000A431A601968FC2252040A431A601A68EE
:101DF00060218A4320210A431A60A26C0B4B1340D6
:101E0000802292041343A364B43423680F229343C3
:101E10001D4325602368F02293434022134323602F
:101E200070BDC04638040020FF3FC0FFFFFFFFC069
:101E30008023DB0500221A659A67012252425A6606
:101E40007047000008B5034800210C2201F01FFD77
:101E500008BDC04620010040054B802219681203CE
:101E60000A431A601968034A0A401A607047C0465C
:101E7000B4000040FFFFF7FF70B5264E042234681F
:101E80002548211D01F0FAFC211C083104222348B9
:101E900001F0F4FC211C0C310422214801F0EEFC7D
:101EA000211C103104221F4801F0E8FC211C802570
:101EB000143104221C48ED0501F0E0FCFFF7A0FE00
:101EC000002823D033681B781B071B0F0F2B0AD168
:101ED000164B1A780F2A06D81A786968144B5205DF
:101EE0000B4013436B60134B1A689205920F012A43
:101EF0000CD1114A11780F2908D811780F221140FE
:101F000018680E4A490302400A431A60FFF7A4FF0B
:101F100070BDC04638040020080000400C0000409E
:101F200010000040140000401C000040510001005F
:101F3000FFFF1FE0B400004058000100FF1FFEFF3C
:101F400008B5144B144A19680A401A6019688022AF
:101F5000D2020A431A601968104A0A4080214902D5
:101F60000A431A601968802252010A431A601968EC
:101F70000B4A0A401A6019680A4A0A40802149003F
:101F80000A431A601968084A0A401A60FFF764FF9A
:101F900008BDC046B4000040FFFFFDFFFF1FFEFF6D
:101FA000FFF7FFFFFFFCFFFFFFFBFFFF054980235B
:101FB0000968DB0509695A6E0120884082435A6628
:101FC0007047C04678000020054A80231268DB0570
:101FD00012690120596E9040021C0A435A667047EC
:101FE000780000208023DB055A6E034B01201B681C
:101FF0001B69DA4090437047780000208023DB059E
:10200000020280B2998F120E98873E3319781A70A7
:102010007047000072B6054B1B5C002B03D1C04615
:1020200062B630BFF6E762B67047C0461C040020B7
:1020300008B50020FFF7EEFF08BD000072B6044BA4
:102040001B5C002B02D1C04662B6F7E762B6704750
:102050001C040020F0B587B003AF7960191CBA608A
:102060009C46039001C101229300FE586446002063
:1020700023689E420DD80D1C0192019B043D8342B2
:1020800005DD2B686B60019B013B0193F5E7266042
:1020900004E001300E6004349042E9DB0132043187
:1020A000032AE1D107B0F0BDF7B5174A1068174A07
:1020B00045786CB2002C07D0012C0BD1144916685E
:1020C0000968337A493104E011680B7910490968CD
:1020D0002D310978126801921A1C19329200821867
:1020E000013B10D3002D03D11668CE40166008E0E6
:1020F000019F3E796643F618B6008619B76ECF4049
:10210000B766043AECE7F7BD780000203C040020F5
:1021100038040020F0B580238DB00122DB0500AF2C
:102120000E1C5A70002803D10320FFF773FF02E052
:102130000320FFF783FF894C0121226851560029B3
:1021400005D0012906D1864B1B681D7A02E0844B1D
:102150001B681D796DB20C236B430A33DB0868469C
:10216000DB00C01A85467861012E66D1013D6A1CEC
:1021700055D0236801229A56794E002A27D0012A89
:1021800041D1784A0321126830686132127852B224
:102190005143027948005219801808308000C05815
:1021A000FA614A1CB8615200F869944684440822D6
:1021B000944460468000C2580231F8694900944650
:1021C0000A1808329200D258B869614617E0654A89
:1021D000032112686032127852B24A435100491901
:1021E00008318900C858511C02324900520049196F
:1021F00052190831083289009200C958D2583B1C44
:102200002433FFF727FF23683268012159561279DA
:102210004A43AA181A32B96A9200D150A6E74F4B26
:102220001B685B785BB2002B00D188E0012B00D0EB
:1022300091E04C4B1B68613384E09369032B01D020
:10224000092B5CD1AB009C087869BC61E4005B425F
:102250003C610419FC61FB600324013C2DD32E1C5E
:10226000013E25D33D4B3E4A1B6812680121595659
:102270001279A01D4A43610092198918083189001A
:10228000C95840003960E11C8446490089186244FD
:102290000831083289009200C958D2583B1C2433B7
:1022A0003868FFF7D7FEB96AFA69B300D150D7E7AB
:1022B000FB69F8681B18FB61CFE7013D7969BA69D2
:1022C000AC000C199600691CA9D03B692068E35842
:1022D000A1591A1C7B603B1C2433FFF7BBFE1F4B2C
:1022E0001F4A1B681268012112795956B86A4A437D
:1022F000AA181A329200D050013D043CE3E7012BAA
:102300008DD117482B1C0068F86116480068B86129
:10231000013B84D3BE69FC6961363678207976B298
:10232000032466430D1C45437600F6183018083028
:102330005D1980001A358058AD00A850E8E7094BB8
:102340001B6860331A78013AD1B2100601D41970B3
:1023500001E002221A70BD460DB0F0BD78000020E9
:102360003C0400200000002008B50020011CFFF7FD
:10237000D1FEFFF799FE08BD10B58023DB059968F3
:102380001A4A0A409A605968194A0A405A605968BC
:10239000184A0A405A60184A1268127D012A1ED152
:1023A0005A680F21154C8A435A60226880231B010A
:1023B00013432360FFF750FD226880239B021343E1
:1023C0002360FFF749FD22680D4B13402360FFF7A0
:1023D00043FD22680B4B13402360FFF73DFD802334
:1023E000DB059968084A0A409A6010BDFFFF7FFF2D
:1023F000FFE1FFFFFF1FFEFF00000020B4000040D0
:10240000FFFFFBFFFFEFFFFFFFFFFEFF08B5044BE1
:1024100000221A70FFF7B0FF024B01221A7008BDAC
:102420001C0400203F00004070B58025ED05AA681F
:1024300080235B021343AB60244B254E1B681B7D3E
:10244000012B23D1234C802322685B01134323609B
:10245000FFF702FD22688023DB0213432360FFF7AE
:10246000FBFC22681C4B13402360FFF7F5FC22683D
:102470001A4B13402360FFF7EFFC336869681A7842
:102480000F2399431A400B1C13436B6032680123DE
:102490009078547818408023DB056409C0002043FD
:1024A0000F495C68400321400143596051785868E6
:1024B000C9060C4A090F490202400A435A6099684A
:1024C000802212040A439A6070BDC04600000020BA
:1024D00038040020B4000040FFFFFDFFFFF7FFFFBE
:1024E000FF1FFEFFFFE1FFFF8023DB055868400D63
:1024F000C0B2704730B58023DB055A680F23134004
:1025000083420ED001DA013300E0013B8022D20584
:1025100055680F211C1C8D430C40291C2143516020
:10252000EEE730BD30B58023DB055B685B0DDBB2C9
:1025300083420DD001DA013300E0013B8022D20555
:1025400055680449DCB26405294021435160EFE736
:1025500030BDC046FFFF1FE038B5114C8023256811
:10256000DB051048291C04225B6801F087F92878F4
:102570000007000F0F2800DD0F200B4B1B68D860F1
:10258000C0B2FFF7B7FF23685888C004000EFFF7FA
:10259000C9FF8023DB055968044A0A405A6038BDE8
:1025A000380400200400004078000020FFFEFFFFF8
:1025B000002806D1094B1B681A1C2C3210782B33CB
:1025C00007E0012809D1054B1B681A1C4832107816
:1025D00047331B78C01A0130FFE7704738040020EA
:1025E000002803D1054B1B682E3304E0012804D1D9
:1025F000024B1B684A331878FFE770473804002005
:10260000002803D1054B1B682D3304E0012804D1B9
:10261000024B1B6849331878FFE7704738040020E5
:1026200008B5FFF799FFFFF727FCFFF757FBFFF708
:102630007FFB00F02BFB08BDF0B5164B01280BD13A
:10264000002A09D008401C68C205134820401043E6
:102650001860124B19701CE0114A01251268114CC8
:1026600056680D40104AB0420DD11F680A48EE0569
:1026700038403043186018682D0604402C431C6015
:10268000064B197004E018682D0604402C431C60AA
:102690001170F0BDB4000040FFFF7FFFA5020020D5
:1026A00080020020FFFFFFFEA402002038B5184B77
:1026B00001251B78002B02D100F0A6FD0540154C2A
:1026C000EB05154A256815401D43144B25601B7802
:1026D0000125002B03D100F097FDE84005402B06B3
:1026E0000F4A256815401D43256000F095FD031C29
:1026F00020680F252B40A8431843206000F098FD68
:10270000054028012568F0239D430543256038BD19
:10271000A5020020B4000040FFFF7FFFA4020020BC
:10272000FFFFFFFE0002064B000A0138002258603E
:102730009A6005221A60C0461A68D103FCD570471A
:1027400010E000E0044B054900221A6059609A60CD
:1027500005221A607047C04610E000E0FFFFFF004E
:1027600010B58022D20554680F21640C0C40082358
:10277000012C04D05468640C21405B1ADBB21C1C91
:102780000A4B51681B680F229B681140591A084B6D
:1027900089185943074B4443C9180748FDF7ACFC57
:1027A000C1B2201CFDF7A8FC10BDC0467800002077
:1027B000F91600004E250000400D030010B5044C32
:1027C0000448A368C01AFFF7CBFF0023236010BDA5
:1027D00010E000E0FFFFFF00F8B50D1C141C061C04
:1027E000FFF7B0FF281C00F0E9F9071C201C00F0DF
:1027F0001BFA3F1A002F08DD281C00F0DFF9051C2A
:10280000201C00F011FA2B1A00E001233360FFF7BF
:10281000D5FFF8BDF7B5234800F006FAFFF782FFB1
:10282000214F0025214E224CB7421FD28036F31B88
:102830002026832B00DC9E100123667000203A1CAA
:10284000211CB610E370207100F0ACFD3B1C321C63
:10285000013A08D3002D04D116491868884200D0E7
:102860001D1C0433F4E7B600BF19DBE70E49042250
:102870006B1A01270193E270A723211C01AA0020F3
:1028800067702371843600F08DFD0423751BE3709F
:102890000020A823211C01AA01956770237100F074
:1028A00081FDF7BD801A0600540400208007002037
:1028B00080000020CDCDCDCD014B18686830704729
:1028C00078000020044B1B681879044B1A301B68F1
:1028D000800018187047C0463C0400207800002093
:1028E00010B58024E405A26C80231B061343A36467
:1028F000A36C80222343A36400215200054800F00A
:10290000C6FFA36C5B005B08A364A26C024B134080
:10291000A36410BD00000240FFFFFFBFF7B5061E15
:1029200058D0012800D0BFE0614B80251C68ED0520
:10293000231C34331A78A9685E4B024012050B4001
:102940001343211CAB60353104225B4800F096FF35
:10295000211C39310422594800F090FF211C3D31DF
:102960000422574800F08AFF211C413104225548B7
:1029700000F084FF231C46331978534B7F221868DC
:1029800011409043021C0A431A60231C4C331988DF
:102990004E4B09051A68090D120B12030A431A60FF
:1029A000221C4A3218681178494A090302400A4336
:1029B0001A60231C4F331A78A96C3F27454B3A40C5
:1029C00012060B401343AB64231C47331B78483477
:1029D000019351E0364B80251C68ED05A279A9686A
:1029E000D206344BD20F12050B401343211CAB60AF
:1029F00018310422304800F041FF211C1C31042210
:102A00002E4800F03BFF211C203104222C4800F00E
:102A100035FF211C243104222A4800F02FFF231CFB
:102A20002A331978284B7F22186811409043021CE2
:102A30000A431A60254B218E1A680905120B090DED
:102A400012030A431A60221C2E3218681178204A99
:102A5000090302400A431A60231C32331A78A96C16
:102A60003F271C4B3A4012060B401343AB64231C18
:102A70002B331B782C3401932478FFF731FFAA6C99
:102A800080239B011343AB64AB6C019ABB433A4078
:102A90001343AB643C40104BAF6CA4011F40274371
:102AA000AF64301C00F03CF90C4B1B685E70F7BD46
:102AB00038040020FFFFEFFFD8000040DC0000409A
:102AC000E0000040E4000040C0000040A8000040DA
:102AD000FF0FF0FFFFFFFFC03FF0FFFF7800002077
:102AE000F8B51C4F041C3B680E1C59619961002805
:102AF00003D1194A1268526804E0012803D1164A2A
:102B000012689268DA61154DDA692868211C68300C
:102B100000F022F93B68DA69013ADA61092E0BD13B
:102B2000002C03D12B6860331C7005E0012C03D10D
:102B30002B68002261331A70201CFFF7EFFE084B50
:102B40000022DA708023DB051A705A7001221A7095
:102B5000F8BDC04678000020800200200000002060
:102B60001C04002008B5FFF7BBFFFFF7FDFB08BD05
:102B700038B5041C0D1CFFF7E5FD201C291CFFF7D0
:102B8000AFFF80230120DB0558700021FFF7C2FA58
:102B9000FFF78AFA002C0BD18420FF3000F044F8B4
:102BA000054B181A002803DD8420FF3000F03CF8A4
:102BB000FFF704FE38BDC046BD19000038B58022BD
:102BC000D20551680F230B401249051C0968097D85
:102BD000012900D1002351680F22490C114008241B
:102BE000012906D08021C9054968490C0A40A41A68
:102BF000E4B20F21CB1A084908485943084BC918B9
:102C0000FDF77AFA074B291C58436143FDF774FA24
:102C100038BDC04600000020F9160000400D03003A
:102C20004E25000040420F0038B58022D205516881
:102C30000F230B401149051C0968097D012900D1AA
:102C4000002351680F22490C11400824012906D0A5
:102C50008021C9054968490C0A40A41AE4B20F2131
:102C6000CB1A074907485943074BC918FDF744FADF
:102C7000211C6843FDF740FA38BDC0460000002023
:102C8000F9160000400D03004E25000038B5102253
:102C90001F48002100F0FBFD1E4B1A680423013B76
:102CA000DBB2FF2B2BD01A48990009180C681807C3
:102CB00024012409204308600D68072416481C409D
:102CC000A4042840204308601179994209D9D118F9
:102CD00049790F48890009180C6880208002204338
:102CE0000860117A9942DAD9D118C97A084889005E
:102CF00009180C688020800220430860CFE78023F9
:102D0000DB05196B054A01200A401A6338BDC0462D
:102D1000000100403C040020FFFFE3FF1FFEFFFF17
:102D2000002805D10A4B1B681A799B18197906E00F
:102D300001280CD1064B1B681A7A9B18997A054B0F
:102D40001F22186811409043021C0A431A60704702
:102D50003C040020D4000040F0B51B4B85B01C683B
:102D60001A4B01901B680393013A2BD3002902D11F
:102D7000A3185D7908E0012906D1039B70331B7805
:102D8000002B01D0A318DD7A2679019F4E43B61897
:102D90000F48B600BE19AB001B183068C003800D89
:102DA00002901F68B80A029F800207431F603678AE
:102DB000084F7606F60B02961868029E07403E43BF
:102DC0001E60D1E705B0F0BD3C04002000000020EB
:102DD00000010040FF03FEFF70B5041C081C0D1C21
:102DE000FFF7E6FB061C281CFFF7FAFB074B1B68E6
:102DF0005B885E4370438623C0114343DB09236035
:102E00007A2360605843C009A06070BD3C04002074
:102E1000F0B585B0039300260DAB051C0C1C029287
:102E20009E57FFF749FD071C002C56D00C9A281C12
:102E3000311CFFF791FF301C0321FFF751FE0020EA
:102E40000121FFF767F9264B64101B6801930023EB
:102E50000C998B42E8DA01980B9902797243D218E7
:102E6000920001291BD1B9580298814205D9A918AD
:102E70000A68D003800D001B07E0039881422AD224
:102E8000A9180A68D003800D20188005C00B84465D
:102E9000144A086802406046104308601BE0B958B5
:102EA0000A98814206D9AA18117800924806400E65
:102EB000001B08E00A9881420DD2AA1811780092EE
:102EC0004806400E2018844662467F200240814317
:102ED0000098114301700133BAE705B0F0BDC04658
:102EE0003C0400207F00FEFFF0B589B00023061CE3
:102EF00005A80593069307930C1CFFF76DFF1F4B66
:102F0000002C02D11868057909E0012C07D11C4A70
:102F1000126870321278002A01D01A68157A19687E
:102F20002B1C013B0ED30A7916486243D21892003B
:102F3000B2181768384080277F023843106040205D
:102F40001070EEE706980123802100900193301C59
:102F5000059A079B029503948900FFF759FF069A8B
:102F6000079B00920222019202950394301C40219B
:102F7000059AFFF74DFF09B0F0BDC0463C040020A4
:102F8000000000207F00FEFF014B18607047C04624
:102F90004004002070B5FDF7F5FA061CFEF718FE98
:102FA000284C051C311C2068102200F067FC2A7A8E
:102FB0002B792168D3188B75234B61691A1C083251
:102FC000A26080226360D2059269187E120A0A709C
:102FD000597EE26809020143987E00040143D87ECD
:102FE00000060143080A11705070080C090ED170D8
:102FF000597F9070187F09020143987F00040143B4
:10300000D87F00060143080A11715071080C090E9F
:10301000D171191C2D331B782C3109781B020B43FD
:1030200013721B0A5372A369907102229A700F22C5
:10303000DA70E3691A6800221A6004221A715A7160
:1030400070BDC04690000020D03F000038B5FDF7AD
:1030500099FAFEF7BDFD134CA56A00F0ABFB686062
:10306000FFF798FF104B226B1B681B88190A5171E0
:1030700013710221042B03D00021092B00D103215D
:10308000231C3C33917101225A7000229A7000F087
:103090008DFB064B58608023DB059A69236C1A7000
:1030A00038BDC04690000020400400202C030020C2
:1030B00008B5084A916C4B780749DBB20B72012BBB
:1030C00005D0022B05D1536C01225A7001E0FEF7A6
:1030D0006DFF08BD900000202C030020094B10B5A7
:1030E0001B7A094C012B05D0022B05D1626C002301
:1030F000537001E0FEF768FF636B7F211A788A4303
:103100001A7010BD2C03002090000020F8B5194D56
:103110000024194E337A012B07D0002B18D0022B34
:1031200017D1164B5B6C5C7813E0FEF75BFF041C59
:10313000002D0BD1FEF748FF2E23FF33013B002B60
:1031400001D0C046FAE7FEF731FF0A4D013D00E02D
:103150001C1C0A4FBA6C5378327A9A4206D0FFF799
:10316000BDFFBB6C044A5B78137201E0002CD0D128
:10317000F8BDC046FF2C01002C0300209000002069
:10318000024B9B6C1878C0B27047C046900000207C
:10319000024B9B6C5879C0B27047C046900000202B
:1031A000024B9B6C9879C0B27047C04690000020DB
:1031B000014B9B6C5871704790000020014B9B6C39
:1031C0009871704790000020024B9B6CD878C0B279
:1031D0007047C04690000020024B9B6C587DC0B2E7
:1031E0007047C04690000020024B9B6C987DC0B297
:1031F0007047C04690000020024B9B6C587AC0B2CA
:103200007047C04690000020024BDB691868C0B2CE
:103210007047C04690000020044AD369926919792A
:10322000D078814201D21879C0B270479000002056
:10323000044AD36992695979D078814201D2587988
:10324000C0B2704790000020034BA0225B6C1A7044
:103250001A78A02AFCD0704790000020024B1B6D0A
:103260001878C0B27047C04690000020024B1B6D1A
:103270009878C0B27047C046900000200E4B30B521
:103280001A6DFF2414700D4C586521600578847800
:10329000996A6C430579407964194006400E604391
:1032A0000860586CA0210170996C1378FF2B02D133
:1032B0000B78022BF9D030BD900000202C030020A9
:1032C000014B1B68188870474004002008B5FFF7C1
:1032D0001DFF024B0022DA6008BDC0462C0300200F
:1032E00070B5074B074C1A6BE668011C9579986B13
:1032F0002A1C8019751900F0C1FAE56070BDC0463E
:10330000900000202C03002008B5074BDB68002B41
:1033100009D0064ADBB2506B7F21194001703C3264
:103320009370FFF7C5FE08BD2C030020900000201D
:1033300073B56C46E271194A0734D56D2E78864212
:103340002AD1FF2028709366131C9C331B682078B9
:103350009B688000116654661871114B06980C78B2
:1033600018608878936A60430C7949790019490696
:10337000490E41431960516CA0230B70D16D936CC1
:103380000A78FF2A02D11A78002AF9D00A78FF2A8F
:1033900002D11A780A2AF3D073BDC04690000020EB
:1033A0002C03002070B5144CE36B1D79EDB2012D98
:1033B00021D1854058781E78000230439E7836042B
:1033C0003043DE7836063043284214D0FF2018718F
:1033D0000A48216402608C780D78C9786C434906EC
:1033E000490E074A6143906A526C0160772111705F
:1033F0001A79FF2AFCD070BD100100202C03002098
:1034000090000020014B5B6C987870471001002001
:10341000014B5B6C9870704710010020024BDB6819
:103420009872000AD872704790000020014B5B69C7
:103430009872704790000020014B5B69D87270470A
:1034400090000020002303600B601B4BF7B59A42ED
:1034500030DC1312194C122B1BD89B00E418E46EBD
:10346000002C27D0E368013B5D1C23D0D5B2019529
:1034700065681E1CEF5C019D013BED1BF4D42768C1
:10348000B300DB59002B15D05B190360A3689B5D6B
:103490000EE0E36A666A013B0CD35D00755B551B69
:1034A000F9D4266A9B00F25852190260A26AD358D6
:1034B0005D1B0D60F7BDC046FFEF000090000020CF
:1034C000C02208B5D2000B4B904206D15B6C1A7833
:1034D000052A0DD005221A700AE05B6B84221B7846
:1034E00092005B065B0E9B18984201D1FFF7F6FD38
:1034F00008BDC0469000002038B5051C1C1C181CD7
:103500008D4209DB0498954206DAC01A6D1A6843A9
:10351000511AFCF7F1FD201838BD0000014B18606E
:103520007047C04644040020014B18687047C046ED
:1035300044040020014B18607047C0464804002036
:10354000014B18687047C04648040020014B1868BA
:103550007047C04684020020F0B585B01E1C0CAB3D
:103560001B7800275BB201900D1C141C0097012BE7
:1035700003D12A4B1B685B6800930020284938233D
:10358000021C0B71FFF70EFF331C0020013B14D30C
:10359000009FFA18019F9200BA1811680A27C90300
:1035A000890D4F431278BC4652066044520EEDD04E
:1035B0000A214A43D2098018E8E7311CFCF74EFD86
:1035C0006E88071C002E02D14023636007E0B00123
:1035D000391CFCF743FD6E2800DD6E2060602B79FE
:1035E000642253430A9A0B9953432A780B41002AC9
:1035F00002D0626853439B110A49A36002234B70B7
:103600007C235B42CB7000205F2302AA02960397C3
:103610000B71FFF7C7FE05B0F0BDC0468002002069
:10362000240300208000002070B59300C018C91842
:103630000023043B013A04D3C558CE58AC19C450FA
:10364000F7E770BDF7B5051C009101921F1C1C1C0B
:10365000013C0FD3A600A8590899FCF7FFFC009A7B
:103660001378002B03D0019A13575843801180031D
:10367000A851EDE7074C0E23A371042044232A1C14
:10368000211C67702371E070FFF78CFE0023A3718B
:10369000F7BDC04680000020F8B5051C101C1A1CA0
:1036A000114B069E1B68B4002F190A269B5F0C590C
:1036B0009C4200DA1C1C111CFCF71EFD44433B68B5
:1036C000069E1C1B3C60094C0E23A371079B042023
:1036D0002A1C211C6670E0702371FFF763FE002333
:1036E0000120A371F8BDC0464404002080000020E2
:1036F00010B5054C20600078FFF798FE2368D87855
:10370000FFF79AFE10BDC0464C040020014B18681C
:103710007047C0468802002038B5104C0C25206840
:103720002A1C0021103000F0B2F820682A1C002169
:103730001C3000F0ACF8206800210622383000F080
:10374000A6F82068002103223E3000F0A0F820688F
:1037500000214022043000F09AF838BD8802002091
:1037600038B5041C081C002A07D0D11858436243FE
:103770004D1010184019FCF7BFFC38BD0A4B10B5AE
:103780001C680021201C0622383000F080F8201C24
:10379000002103223E3000F07AF8201C00210C2288
:1037A000103000F074F810BD880200200048704707
:1037B000E23D00008520400070470000004870474F
:1037C0000E3E00008E235843014B18187C30704782
:1037D000E23D000008B5FEF7FBF9074B02791B68D4
:1037E0005A60027A9A60427A1A61827ADA60827B3F
:1037F0001A75028ADA8208BD8002002010B5094CD1
:10380000201CFEF7DFF9201C1630FCF7B5FE201C4B
:103810002A30FFF7B9FBFFF7DDFF0348FFF78AFE09
:1038200010BDC046E23D0000EC3E00000D4B10B55F
:103830001B688E241B785C430B4B7834E4180B4BCD
:10384000201D1860FEF7CAF9201C5430FCF7A0FEBA
:10385000201C5830FFF762FE201C8630FFF748FF1F
:1038600010BDC0468C020020E23D00005004002044
:10387000014B1B68187870478C02002010B500239C
:10388000934203D0CC5CC4540133F9E710BD031C50
:103890008218934202D019700133FAE77047FFFF94
:1038A0000400002000000000FF00000000000000F5
:1038B0000000000000000000000000000000000008
:1038C00000000000000000000000000000000000F8
:1038D00000000000000000000000000000000000E8
:1038E00000000000000000000000000000000000D8
:1038F00000000000000000000000000000000000C8
:1039000000000000000000000000000000000000B7
:103910000000000000000000A80200202B0300208F
:10392000010000000000000103008400000000000E
:10393000700300200000000000000000640300206D
:103940007502002069020020310200204C03002093
:103950002C030020580100203C030020020000003E
:103960005D0300205C0300205303002007000000DB
:103970004B0300206702002050020020400200207C
:103980003D0200200000000035020020520300200C
:103990000000000000000000000000000000000027
:1039A0000C020020F80100200000000000000000D0
:1039B00000000000E4010020D00100200000000011
:1039C00000000000B8010020000000009C01002061
:1039D0000000000000000000000000008401002042
:1039E000700100205C0100202D0200202802002030
:1039F0000000000046030020002000605401002069
:103A0000440300206C0100200100000005000000BC
:103A1000D0000020450300208001002001000000AC
:103A200001000000480100209701002094010020BF
:103A3000030000000405070010200000E80000203B
:103A4000B1010020AC0100200500000008010C01BC
:103A50000400102030310000DC000020CB010020E9
:103A6000C80100200300000008030C001020000023
:103A7000A8000020E2010020E00100200200000078
:103A800004060010D4000020F6010020F4010020FC
:103A90000200000002170010C000002008020020F1
:103AA000CC00002003000000001011009000002056
:103AB000220200201C020020060000001708080C4B
:103AC0000A0C002030405070010000000000200669
:103AD0000100010000002010020E000000FF0000A5
:103AE00000200302600090004C02002000600901E9
:103AF00000010000000000000000000000000000C5
:103B000000000000000101050000483248314D4529
:103B100000000000004D49500000000000030500B7
:103B200094030020B8030020D003002014040020D8
:103B3000FFFFFFFFFFFFFFFFFFFFFFFFFFFFFFFF95
:103B4000FFFFFFFFFFFFFFFFFFFFFFFFFFFFFFFF85
:103B5000FFFFFFFFFFFFFFFFFFFFFFFFFFFFFFFF75
:103B6000FFFFFFFFFFFFFFFFFFFFFFFFFFFFFFFF65
:103DD00001014832483150415241303030303030AA
:103DE00030300000B80B02000100000A030300009D
:103DF00000000000200B1403323031375F4A355F7A
:103E00004B455900000000000A001E0A09000F423D
:103E10008839300081109903C005600000009107C7
:103E20000000000000007C7A05002F8601010101DE
:103E300026140116142800001E0815038000000037
:103E40000500017C420500AF0D030201017732023B
:103E50001EC8FA00280A1D018000000000050F425C
:103E60008839300081109903C00560000000910777
:103E70000000000000007C7A05002F86010101018E
:103E800026140116142800001E08150380000000E7
:103E90000500017C420500AF0D03020101773202EB
:103EA0001EC8FA00280027008000000000055A5AAA
:103EB00003000300010000003F013200CEFF32008A
:103EC000CEFF020010FFDC05000000007811320177
:103ED0001E0000801400E2FF02006AFFDC05000003
:103EE0006E37C89646020100000004004022FFFF22
:103EF000FFFFFFFFFFFFFFFFFFFFFFFFFFFFFFFFD2
:103F0000FFFFFFFFFFFFFFFFFFFFFFFFFFFFFFFFC1
:103F1000FFFFFFFFFFFFFFFFFFFFFFFFFFFFFFFFB1
:103F2000FFFFFFFFFFFFFFFFFFFFFFFFFFFFFFFFA1
:103F3000FFFFFFFFFFFFFFFFFFFFFFFFFFFFFFFF91
:103F4000FFFFFFFFFFFFFFFFFFFFFFFFFFFFFFFF81
:103F5000FFFFFFFFFFFFFFFFFFFFFFFFFFFFFFFF71
:103F6000FFFFFFFFFFFFFFFFFFFFFFFFFFFFFFFF61
:103F7000FFFFFFFFFFFFFFFFFFFFFFFFFFFFFFFF51
:103F8000FFFFFFFFFFFFFFFFFFFFFFFFFFFFFFFF41
:103F9000FFFFFFFFFFFFFFFFFFFFFFFFFFFFFFFF31
:103FA000FFFFFFFFFFFFFFFFFFFFFFFFFFFFFFFF21
:103FB000FFFFFFFFFFFFFFFFFFFFFFFFFFFF01010D
:103FC0004D425401483248310000000000400000DA
:103FD000EEEE030401010101EEEEEEEE000F0F1014
:103FE000002209012E02000002111620080217000B
:103FF000000000000000000000004000939F00004F
:00000001FF
